{"abi":[{"type":"constructor","inputs":[],"stateMutability":"nonpayable"},{"type":"function","name":"acceptOwnership","inputs":[],"outputs":[],"stateMutability":"nonpayable"},{"type":"function","name":"approve","inputs":[{"name":"to","type":"address","internalType":"address"},{"name":"tokenId","type":"uint256","internalType":"uint256"}],"outputs":[],"stateMutability":"nonpayable"},{"type":"function","name":"balanceOf","inputs":[{"name":"owner","type":"address","internalType":"address"}],"outputs":[{"name":"","type":"uint256","internalType":"uint256"}],"stateMutability":"view"},{"type":"function","name":"batchUpdateForm","inputs":[{"name":"tokenIds","type":"uint256[]","internalType":"uint256[]"},{"name":"forms","type":"int8[]","internalType":"int8[]"},{"name":"goals","type":"uint16[]","internalType":"uint16[]"}],"outputs":[],"stateMutability":"nonpayable"},{"type":"function","name":"getApproved","inputs":[{"name":"tokenId","type":"uint256","internalType":"uint256"}],"outputs":[{"name":"","type":"address","internalType":"address"}],"stateMutability":"view"},{"type":"function","name":"getEffectiveSkills","inputs":[{"name":"tokenId","type":"uint256","internalType":"uint256"}],"outputs":[{"name":"","type":"uint8[7]","internalType":"uint8[7]"}],"stateMutability":"view"},{"type":"function","name":"getPlayer","inputs":[{"name":"tokenId","type":"uint256","internalType":"uint256"}],"outputs":[{"name":"","type":"tuple","internalType":"struct SWOSPlayerNFT.Player","components":[{"name":"name","type":"string","internalType":"string"},{"name":"baseSkills","type":"uint8[7]","internalType":"uint8[7]"},{"name":"form","type":"int8","internalType":"int8"},{"name":"value","type":"uint256","internalType":"uint256"},{"name":"age","type":"uint8","internalType":"uint8"},{"name":"seasonGoals","type":"uint16","internalType":"uint16"},{"name":"totalGoals","type":"uint16","internalType":"uint16"}]}],"stateMutability":"view"},{"type":"function","name":"isApprovedForAll","inputs":[{"name":"owner","type":"address","internalType":"address"},{"name":"operator","type":"address","internalType":"address"}],"outputs":[{"name":"","type":"bool","internalType":"bool"}],"stateMutability":"view"},{"type":"function","name":"mintBatch","inputs":[{"name":"to","type":"address","internalType":"address"},{"name":"tokenIds","type":"uint256[]","internalType":"uint256[]"},{"name":"names","type":"string[]","internalType":"string[]"},{"name":"skills","type":"uint8[7][]","internalType":"uint8[7][]"},{"name":"ages","type":"uint8[]","internalType":"uint8[]"},{"name":"values","type":"uint256[]","internalType":"uint256[]"}],"outputs":[],"stateMutability":"nonpayable"},{"type":"function","name":"mintPlayer","inputs":[{"name":"to","type":"address","internalType":"address"},{"name":"tokenId","type":"uint256","internalType":"uint256"},{"name":"name","type":"string","internalType":"string"},{"name":"baseSkills","type":"uint8[7]","internalType":"uint8[7]"},{"name":"age","type":"uint8","internalType":"uint8"},{"name":"initialValue","type":"uint256","internalType":"uint256"}],"outputs":[],"stateMutability":"nonpayable"},{"type":"function","name":"name","inputs":[],"outputs":[{"name":"","type":"string","internalType":"string"}],"stateMutability":"view"},{"type":"function","name":"oracle","inputs":[],"outputs":[{"name":"","type":"address","internalType":"address"}],"stateMutability":"view"},{"type":"function","name":"owner","inputs":[],"outputs":[{"name":"","type":"address","internalType":"address"}],"stateMutability":"view"},{"type":"function","name":"ownerOf","inputs":[{"name":"tokenId","type":"uint256","internalType":"uint256"}],"outputs":[{"name":"","type":"address","internalType":"address"}],"stateMutability":"view"},{"type":"function","name":"pause","inputs":[],"outputs":[],"stateMutability":"nonpayable"},{"type":"function","name":"paused","inputs":[],"outputs":[{"name":"","type":"bool","internalType":"bool"}],"stateMutability":"view"},{"type":"function","name":"pendingOwner","inputs":[],"outputs":[{"name":"","type":"address","internalType":"address"}],"stateMutability":"view"},{"type":"function","name":"renounceOwnership","inputs":[],"outputs":[],"stateMutability":"nonpayable"},{"type":"function","name":"resetSeason","inputs":[{"name":"tokenId","type":"uint256","internalType":"uint256"}],"outputs":[],"stateMutability":"nonpayable"},{"type":"function","name":"safeTransferFrom","inputs":[{"name":"from","type":"address","internalType":"address"},{"name":"to","type":"address","internalType":"address"},{"name":"tokenId","type":"uint256","internalType":"uint256"}],"outputs":[],"stateMutability":"nonpayable"},{"type":"function","name":"safeTransferFrom","inputs":[{"name":"from","type":"address","internalType":"address"},{"name":"to","type":"address","internalType":"address"},{"name":"tokenId","type":"uint256","internalType":"uint256"},{"name":"data","type":"bytes","internalType":"bytes"}],"outputs":[],"stateMutability":"nonpayable"},{"type":"function","name":"setApprovalForAll","inputs":[{"name":"operator","type":"address","internalType":"address"},{"name":"approved","type":"bool","internalType":"bool"}],"outputs":[],"stateMutability":"nonpayable"},{"type":"function","name":"setOracle","inputs":[{"name":"newOracle","type":"address","internalType":"address"}],"outputs":[],"stateMutability":"nonpayable"},{"type":"function","name":"supportsInterface","inputs":[{"name":"interfaceId","type":"bytes4","internalType":"bytes4"}],"outputs":[{"name":"","type":"bool","internalType":"bool"}],"stateMutability":"view"},{"type":"function","name":"symbol","inputs":[],"outputs":[{"name":"","type":"string","internalType":"string"}],"stateMutability":"view"},{"type":"function","name":"tokenByIndex","inputs":[{"name":"index","type":"uint256","internalType":"uint256"}],"outputs":[{"name":"","type":"uint256","internalType":"uint256"}],"stateMutability":"view"},{"type":"function","name":"tokenOfOwnerByIndex","inputs":[{"name":"owner","type":"address","internalType":"address"},{"name":"index","type":"uint256","internalType":"uint256"}],"outputs":[{"name":"","type":"uint256","internalType":"uint256"}],"stateMutability":"view"},{"type":"function","name":"tokenURI","inputs":[{"name":"tokenId","type":"uint256","internalType":"uint256"}],"outputs":[{"name":"","type":"string","internalType":"string"}],"stateMutability":"view"},{"type":"function","name":"totalSupply","inputs":[],"outputs":[{"name":"","type":"uint256","internalType":"uint256"}],"stateMutability":"view"},{"type":"function","name":"transferFrom","inputs":[{"name":"from","type":"address","internalType":"address"},{"name":"to","type":"address","internalType":"address"},{"name":"tokenId","type":"uint256","internalType":"uint256"}],"outputs":[],"stateMutability":"nonpayable"},{"type":"function","name":"transferOwnership","inputs":[{"name":"newOwner","type":"address","internalType":"address"}],"outputs":[],"stateMutability":"nonpayable"},{"type":"function","name":"unpause","inputs":[],"outputs":[],"stateMutability":"nonpayable"},{"type":"function","name":"updateForm","inputs":[{"name":"tokenId","type":"uint256","internalType":"uint256"},{"name":"newForm","type":"int8","internalType":"int8"},{"name":"newGoals","type":"uint16","internalType":"uint16"}],"outputs":[],"stateMutability":"nonpayable"},{"type":"event","name":"Approval","inputs":[{"name":"owner","type":"address","indexed":true,"internalType":"address"},{"name":"approved","type":"address","indexed":true,"internalType":"address"},{"name":"tokenId","type":"uint256","indexed":true,"internalType":"uint256"}],"anonymous":false},{"type":"event","name":"ApprovalForAll","inputs":[{"name":"owner","type":"address","indexed":true,"internalType":"address"},{"name":"operator","type":"address","indexed":true,"internalType":"address"},{"name":"approved","type":"bool","indexed":false,"internalType":"bool"}],"anonymous":false},{"type":"event","name":"FormUpdated","inputs":[{"name":"tokenId","type":"uint256","indexed":true,"internalType":"uint256"},{"name":"newForm","type":"int8","indexed":false,"internalType":"int8"},{"name":"newValue","type":"uint256","indexed":false,"internalType":"uint256"}],"anonymous":false},{"type":"event","name":"OracleUpdated","inputs":[{"name":"oldOracle","type":"address","indexed":true,"internalType":"address"},{"name":"newOracle","type":"address","indexed":true,"internalType":"address"}],"anonymous":false},{"type":"event","name":"OwnershipTransferStarted","inputs":[{"name":"previousOwner","type":"address","indexed":true,"internalType":"address"},{"name":"newOwner","type":"address","indexed":true,"internalType":"address"}],"anonymous":false},{"type":"event","name":"OwnershipTransferred","inputs":[{"name":"previousOwner","type":"address","indexed":true,"internalType":"address"},{"name":"newOwner","type":"address","indexed":true,"internalType":"address"}],"anonymous":false},{"type":"event","name":"Paused","inputs":[{"name":"account","type":"address","indexed":false,"internalType":"address"}],"anonymous":false},{"type":"event","name":"PlayerMinted","inputs":[{"name":"tokenId","type":"uint256","indexed":true,"internalType":"uint256"},{"name":"name","type":"string","indexed":false,"internalType":"string"},{"name":"baseSkills","type":"uint8[7]","indexed":false,"internalType":"uint8[7]"}],"anonymous":false},{"type":"event","name":"SeasonReset","inputs":[{"name":"tokenId","type":"uint256","indexed":true,"internalType":"uint256"}],"anonymous":false},{"type":"event","name":"Transfer","inputs":[{"name":"from","type":"address","indexed":true,"internalType":"address"},{"name":"to","type":"address","indexed":true,"internalType":"address"},{"name":"tokenId","type":"uint256","indexed":true,"internalType":"uint256"}],"anonymous":false},{"type":"event","name":"Unpaused","inputs":[{"name":"account","type":"address","indexed":false,"internalType":"address"}],"anonymous":false},{"type":"error","name":"ERC721EnumerableForbiddenBatchMint","inputs":[]},{"type":"error","name":"ERC721IncorrectOwner","inputs":[{"name":"sender","type":"address","internalType":"address"},{"name":"tokenId","type":"uint256","internalType":"uint256"},{"name":"owner","type":"address","internalType":"address"}]},{"type":"error","name":"ERC721InsufficientApproval","inputs":[{"name":"operator","type":"address","internalType":"address"},{"name":"tokenId","type":"uint256","internalType":"uint256"}]},{"type":"error","name":"ERC721InvalidApprover","inputs":[{"name":"approver","type":"address","internalType":"address"}]},{"type":"error","name":"ERC721InvalidOperator","inputs":[{"name":"operator","type":"address","internalType":"address"}]},{"type":"error","name":"ERC721InvalidOwner","inputs":[{"name":"owner","type":"address","internalType":"address"}]},{"type":"error","name":"ERC721InvalidReceiver","inputs":[{"name":"receiver","type":"address","internalType":"address"}]},{"type":"error","name":"ERC721InvalidSender","inputs":[{"name":"sender","type":"address","internalType":"address"}]},{"type":"error","name":"ERC721NonexistentToken","inputs":[{"name":"tokenId","type":"uint256","internalType":"uint256"}]},{"type":"error","name":"ERC721OutOfBoundsIndex","inputs":[{"name":"owner","type":"address","internalType":"address"},{"name":"index","type":"uint256","internalType":"uint256"}]},{"type":"error","name":"EnforcedPause","inputs":[]},{"type":"error","name":"ExpectedPause","inputs":[]},{"type":"error","name":"OnlyOracle","inputs":[]},{"type":"error","name":"OwnableInvalidOwner","inputs":[{"name":"owner","type":"address","internalType":"address"}]},{"type":"error","name":"OwnableUnauthorizedAccount","inputs":[{"name":"account","type":"address","internalType":"address"}]},{"type":"error","name":"PlayerDoesNotExist","inputs":[{"name":"tokenId","type":"uint256","internalType":"uint256"}]},{"type":"error","name":"ReentrancyGuardReentrantCall","inputs":[]}],"bytecode":{"object":"0x608060405234801561000f575f5ffd5b50336040518060400160405280600b81526020016a29aba7a990283630bcb2b960a91b8152506040518060400160405280600381526020016205357560ec1b815250815f908161005f91906101d4565b50600161006c82826101d4565b5050506001600160a01b03811661009c57604051631e4fbdf760e01b81525f600482015260240160405180910390fd5b6100a5816100cf565b5060017f9b779b17422d0df92223018b32b4d1fa46e071723d6817e2486d003becc55f005561028e565b600b80546001600160a01b03191690556100e8816100eb565b50565b600a80546001600160a01b038381166001600160a01b0319831681179093556040519116919082907f8be0079c531659141344cd1fd0a4f28419497f9722a3daafe3b4186f6b6457e0905f90a35050565b634e487b7160e01b5f52604160045260245ffd5b600181811c9082168061016457607f821691505b60208210810361018257634e487b7160e01b5f52602260045260245ffd5b50919050565b601f8211156101cf57805f5260205f20601f840160051c810160208510156101ad5750805b601f840160051c820191505b818110156101cc575f81556001016101b9565b50505b505050565b81516001600160401b038111156101ed576101ed61013c565b610201816101fb8454610150565b84610188565b6020601f821160018114610233575f831561021c5750848201515b5f19600385901b1c1916600184901b1784556101cc565b5f84815260208120601f198516915b828110156102625787850151825560209485019460019092019101610242565b508482101561027f57868401515f19600387901b60f8161c191681555b50505050600190811b01905550565b612f9b8061029b5f395ff3fe608060405234801561000f575f5ffd5b50600436106101f2575f3560e01c806379ba509711610114578063b7c699ba116100a9578063c87b56dd11610079578063c87b56dd1461040d578063e30c397814610420578063e55ae4e814610431578063e985e9c514610451578063f2fde38b14610464575f5ffd5b8063b7c699ba146103b4578063b88d4fde146103d4578063c1d83d8b146103e7578063c735abf4146103fa575f5ffd5b80638da5cb5b116100e45780638da5cb5b14610375578063932998a41461038657806395d89b4114610399578063a22cb465146103a1575f5ffd5b806379ba50971461033f5780637adbf973146103475780637dc0d1d01461035a5780638456cb591461036d575f5ffd5b80633555ad791161018a5780635c975abb1161015a5780635c975abb146102ff5780636352211e1461031157806370a0823114610324578063715018a614610337575f5ffd5b80633555ad79146102be5780633f4ba83a146102d157806342842e0e146102d95780634f6ccce7146102ec575f5ffd5b806318160ddd116101c557806318160ddd1461027357806323497f8a1461028557806323b872dd146102985780632f745c59146102ab575f5ffd5b806301ffc9a7146101f657806306fdde031461021e578063081812fc14610233578063095ea7b31461025e575b5f5ffd5b6102096102043660046124b5565b610477565b60405190151581526020015b60405180910390f35b610226610487565b60405161021591906124fe565b610246610241366004612510565b610516565b6040516001600160a01b039091168152602001610215565b61027161026c366004612542565b61053d565b005b6008545b604051908152602001610215565b6102716102933660046125f1565b61054c565b6102716102a63660046126fc565b610863565b6102776102b9366004612542565b6108ec565b6102716102cc366004612736565b61094f565b610271610d07565b6102716102e73660046126fc565b610d19565b6102776102fa366004612510565b610d38565b600b54600160a01b900460ff16610209565b61024661031f366004612510565b610d8d565b6102776103323660046127d2565b610d97565b610271610ddc565b610271610ded565b6102716103553660046127d2565b610e31565b600d54610246906001600160a01b031681565b610271610e94565b600a546001600160a01b0316610246565b610271610394366004612510565b610ea4565b610226610f7e565b6102716103af3660046127eb565b610f8d565b6103c76103c2366004612510565b610f98565b6040516102159190612824565b6102716103e236600461286b565b6111c1565b6102716103f5366004612966565b6111d9565b6102716104083660046129bf565b611427565b61022661041b366004612510565b6115ba565b600b546001600160a01b0316610246565b61044461043f366004612510565b61162b565b6040516102159190612a75565b61020961045f366004612b16565b6117b0565b6102716104723660046127d2565b6117dd565b5f6104818261184e565b92915050565b60605f805461049590612b47565b80601f01602080910402602001604051908101604052809291908181526020018280546104c190612b47565b801561050c5780601f106104e35761010080835404028352916020019161050c565b820191905f5260205f20905b8154815290600101906020018083116104ef57829003601f168201915b5050505050905090565b5f61052082611872565b505f828152600460205260409020546001600160a01b0316610481565b6105488282336118aa565b5050565b6105546118b7565b61055c6118e4565b88878114801561056b57508086145b801561057657508084145b801561058157508082145b6105ca5760405162461bcd60e51b8152602060048201526015602482015274082e4e4c2f240d8cadccee8d040dad2e6dac2e8c6d605b1b60448201526064015b60405180910390fd5b5f5b81811015610854576105f68d8d8d848181106105ea576105ea612b79565b9050602002013561190f565b6040518060e001604052808b8b8481811061061357610613612b79565b90506020028101906106259190612b8d565b8080601f0160208091040260200160405190810160405280939291908181526020018383808284375f9201919091525050509082525060200189898481811061067057610670612b79565b905060e0020160078060200260405190810160405280929190826007602002808284375f920182905250928452505060208201526040018585848181106106b9576106b9612b79565b9050602002013581526020018787848181106106d7576106d7612b79565b90506020020160208101906106ec9190612bcf565b60ff1681525f602082018190526040909101819052600c908e8e8581811061071657610716612b79565b9050602002013581526020019081526020015f205f820151815f01908161073d9190612c2c565b506020820151610753906001830190600761239c565b50604082015160028201805460ff191660ff9283161790556060830151600383015560808301516004909201805460a085015160c0909501519390921662ffffff199092169190911761010061ffff948516021764ffff0000001916630100000093909216929092021790558b8b828181106107d1576107d1612b79565b905060200201357fb3b08eb6cbd9d7d83bc61cef717cd7bc28bbae0058314f63a81d9818f309292f8b8b8481811061080b5761080b612b79565b905060200281019061081d9190612b8d565b8b8b8681811061082f5761082f612b79565b905060e0020160405161084493929190612ce6565b60405180910390a26001016105cc565b50505050505050505050505050565b6001600160a01b03821661088c57604051633250574960e11b81525f60048201526024016105c1565b5f610898838333611928565b9050836001600160a01b0316816001600160a01b0316146108e6576040516364283d7b60e01b81526001600160a01b03808616600483015260248201849052821660448201526064016105c1565b50505050565b5f6108f683610d97565b82106109275760405163295f44f760e21b81526001600160a01b0384166004820152602481018390526044016105c1565b506001600160a01b03919091165f908152600660209081526040808320938352929052205490565b600d546001600160a01b0316331461097a576040516380fee10560e01b815260040160405180910390fd5b61098261193c565b61098a6118e4565b848314801561099857508281145b6109d65760405162461bcd60e51b815260206004820152600f60248201526e098cadccee8d040dad2e6dac2e8c6d608b1b60448201526064016105c1565b5f5b85811015610ce8575f610a178888848181106109f6576109f6612b79565b905060200201355f908152600260205260409020546001600160a01b031690565b6001600160a01b031614610ce0575f600c5f898985818110610a3b57610a3b612b79565b9050602002013581526020019081526020015f209050858583818110610a6357610a63612b79565b9050602002016020810190610a789190612d50565b60028201805460ff191660ff92909216919091179055838383818110610aa057610aa0612b79565b9050602002016020810190610ab59190612d69565b600482018054600190610ad2908490610100900461ffff16612d96565b92506101000a81548161ffff021916908361ffff160217905550838383818110610afe57610afe612b79565b9050602002016020810190610b139190612d69565b600482018054600390610b329084906301000000900461ffff16612d96565b92506101000a81548161ffff021916908361ffff1602179055505f868684818110610b5f57610b5f612b79565b9050602002016020810190610b749190612d50565b610b81905f0b6064612db0565b60048301549091505f90610b9f90610100900461ffff166002612dd7565b610baa906064612dee565b60048401549091505f90601e60ff9091161015610bc957506064610c0c565b60048401545f90610bdf90601d9060ff16612e01565b610bea90600a612dd7565b9050605a811015610c0557610c00816064612e01565b610c08565b600a5b9150505b620f42408183858760030154610c229190612dd7565b610c2c9190612dd7565b610c369190612dd7565b610c409190612e28565b600385018190556161a81115610c59576161a860038501555b8a8a86818110610c6b57610c6b612b79565b905060200201357fd6c79d6c740c3cf5bc2a39d7fdde7277f7eee0956afc0ac963af1d7284dfb3d88a8a88818110610ca557610ca5612b79565b9050602002016020810190610cba9190612d50565b6003870154604080515f9390930b835260208301919091520160405180910390a2505050505b6001016109d8565b50610cff60015f516020612f465f395f51905f5255565b505050505050565b610d0f6118b7565b610d17611957565b565b610d3383838360405180602001604052805f8152506111c1565b505050565b5f610d4260085490565b8210610d6a5760405163295f44f760e21b81525f6004820152602481018390526044016105c1565b60088281548110610d7d57610d7d612b79565b905f5260205f2001549050919050565b5f61048182611872565b5f6001600160a01b038216610dc1576040516322718ad960e21b81525f60048201526024016105c1565b506001600160a01b03165f9081526003602052604090205490565b610de46118b7565b610d175f6119ac565b600b5433906001600160a01b03168114610e255760405163118cdaa760e01b81526001600160a01b03821660048201526024016105c1565b610e2e816119ac565b50565b610e396118b7565b600d546040516001600160a01b038084169216907f078c3b417dadf69374a59793b829c52001247130433427049317bde56607b1b7905f90a3600d80546001600160a01b0319166001600160a01b0392909216919091179055565b610e9c6118b7565b610d176119c5565b600d546001600160a01b03163314610ecf576040516380fee10560e01b815260040160405180910390fd5b5f8181526002602052604090205481906001600160a01b0316610f08576040516353bd43d960e01b8152600481018290526024016105c1565b5f828152600c60205260408120600401805462ffff00198116825560019290610f3590849060ff16612e3b565b92506101000a81548160ff021916908360ff160217905550817f63d41effaf68bd081bedff8ce8ca3daa66eba11569bcaa60e3396e3dddeb623060405160405180910390a25050565b60606001805461049590612b47565b610548338383611a08565b610fa061242c565b5f8281526002602052604090205482906001600160a01b0316610fd9576040516353bd43d960e01b8152600481018290526024016105c1565b5f838152600c6020526040808220815160e08101909252805482908290610fff90612b47565b80601f016020809104026020016040519081016040528092919081815260200182805461102b90612b47565b80156110765780601f1061104d57610100808354040283529160200191611076565b820191905f5260205f20905b81548152906001019060200180831161105957829003601f168201915b50505091835250506040805160e0810191829052602090920191906001840190600790825f855b825461010083900a900460ff1681526020600192830181810494850194909303909202910180841161109d579050505050918352505060028201545f0b60208201526003820154604082015260049091015460ff8116606083015261ffff61010082048116608084015263010000009091041660a090910152905061112061242c565b5f5b60078110156111b6575f606484604001515f0b60646111419190612db0565b8560200151846007811061115757611157612b79565b602002015160ff166111699190612e54565b6111739190612e83565b9050600f8113156111825750600f5b5f81121561118d57505f5b808383600781106111a0576111a0612b79565b60ff909216602092909202015250600101611122565b509250505b50919050565b6111cc848484610863565b6108e63385858585611aa6565b600d546001600160a01b03163314611204576040516380fee10560e01b815260040160405180910390fd5b61120c61193c565b5f8381526002602052604090205483906001600160a01b0316611245576040516353bd43d960e01b8152600481018290526024016105c1565b61124d6118e4565b5f848152600c6020526040902060028101805460ff191660ff861617905560048101805484919060019061128b908490610100900461ffff16612d96565b92506101000a81548161ffff021916908361ffff160217905550828160040160038282829054906101000a900461ffff166112c69190612d96565b92506101000a81548161ffff021916908361ffff1602179055505f845f0b60646112f09190612db0565b60048301549091505f9061130e90610100900461ffff166002612dd7565b611319906064612dee565b60048401549091505f90601e60ff90911610156113385750606461137b565b60048401545f9061134e90601d9060ff16612e01565b61135990600a612dd7565b9050605a8110156113745761136f816064612e01565b611377565b600a5b9150505b620f424081838587600301546113919190612dd7565b61139b9190612dd7565b6113a59190612dd7565b6113af9190612e28565b600385018190556161a811156113c8576161a860038501555b6003840154604080515f8a900b8152602081019290925289917fd6c79d6c740c3cf5bc2a39d7fdde7277f7eee0956afc0ac963af1d7284dfb3d8910160405180910390a25050505050610d3360015f516020612f465f395f51905f5255565b61142f6118b7565b6114376118e4565b611441878761190f565b6040518060e0016040528086868080601f0160208091040260200160405190810160405280939291908181526020018383808284375f920191909152505050908252506040805160e081810190925260209092019190869060079083908390808284375f92018290525092845250506020808301829052604080840186905260ff871660608501526080840183905260a0909301829052898252600c905220815181906114ee9082612c2c565b506020820151611504906001830190600761239c565b5060408281015160028301805460ff191660ff9283161790556060840151600384015560808401516004909301805460a086015160c0909601519490921662ffffff199092169190911761010061ffff958616021764ffff000000191663010000009490931693909302919091179091555186907fb3b08eb6cbd9d7d83bc61cef717cd7bc28bbae0058314f63a81d9818f309292f906115a990889088908890612ce6565b60405180910390a250505050505050565b60606115c582611872565b505f6115db60408051602081019091525f815290565b90505f8151116115f95760405180602001604052805f815250611624565b8061160384611bcc565b604051602001611614929190612ec6565b6040516020818303038152906040525b9392505050565b61163361244a565b5f8281526002602052604090205482906001600160a01b031661166c576040516353bd43d960e01b8152600481018290526024016105c1565b5f838152600c602052604090819020815160e0810190925280548290829061169390612b47565b80601f01602080910402602001604051908101604052809291908181526020018280546116bf90612b47565b801561170a5780601f106116e15761010080835404028352916020019161170a565b820191905f5260205f20905b8154815290600101906020018083116116ed57829003601f168201915b50505091835250506040805160e0810191829052602090920191906001840190600790825f855b825461010083900a900460ff168152602060019283018181049485019490930390920291018084116117315750505092845250505060028201545f0b60208201526003820154604082015260049091015460ff8116606083015261ffff61010082048116608084015263010000009091041660a0909101529392505050565b6001600160a01b039182165f90815260056020908152604080832093909416825291909152205460ff1690565b6117e56118b7565b600b80546001600160a01b0383166001600160a01b03199091168117909155611816600a546001600160a01b031690565b6001600160a01b03167f38d16b8cac22d99fc7c124b9cd0de2d3fa1faef420bfe791d8c362d765e2270060405160405180910390a350565b5f6001600160e01b0319821663780e9d6360e01b1480610481575061048182611c5c565b5f818152600260205260408120546001600160a01b03168061048157604051637e27328960e01b8152600481018490526024016105c1565b610d338383836001611cab565b600a546001600160a01b03163314610d175760405163118cdaa760e01b81523360048201526024016105c1565b600b54600160a01b900460ff1615610d175760405163d93c066560e01b815260040160405180910390fd5b610548828260405180602001604052805f815250611daf565b5f611934848484611dc6565b949350505050565b611944611e91565b60025f516020612f465f395f51905f5255565b61195f611ec0565b600b805460ff60a01b191690557f5db9ee0a495bf2e6ff9c91a7834c1ba4fdd244a5e8aa4e537bd38aeae4b073aa335b6040516001600160a01b03909116815260200160405180910390a1565b600b80546001600160a01b0319169055610e2e81611eea565b6119cd6118e4565b600b805460ff60a01b1916600160a01b1790557f62e78cea01bee320cd4e420270b5ea74000d11b0c9f74754ebdbfc544b05a25861198f3390565b6001600160a01b038216611a3a57604051630b61174360e31b81526001600160a01b03831660048201526024016105c1565b6001600160a01b038381165f81815260056020908152604080832094871680845294825291829020805460ff191686151590811790915591519182527f17307eab39ab6107e8899845ad3d59bd9653f200f220920489ca2b5937696c31910160405180910390a3505050565b6001600160a01b0383163b15611bc557604051630a85bd0160e11b81526001600160a01b0384169063150b7a0290611ae8908890889087908790600401612eda565b6020604051808303815f875af1925050508015611b22575060408051601f3d908101601f19168201909252611b1f91810190612f16565b60015b611b89573d808015611b4f576040519150601f19603f3d011682016040523d82523d5f602084013e611b54565b606091505b5080515f03611b8157604051633250574960e11b81526001600160a01b03851660048201526024016105c1565b805160208201fd5b6001600160e01b03198116630a85bd0160e11b14610cff57604051633250574960e11b81526001600160a01b03851660048201526024016105c1565b5050505050565b60605f611bd883611f3b565b60010190505f816001600160401b03811115611bf657611bf6612857565b6040519080825280601f01601f191660200182016040528015611c20576020820181803683370190505b5090508181016020015b5f19016f181899199a1a9b1b9c1cb0b131b232b360811b600a86061a8153600a8504945084611c2a575b509392505050565b5f6001600160e01b031982166380ac58cd60e01b1480611c8c57506001600160e01b03198216635b5e139f60e01b145b8061048157506301ffc9a760e01b6001600160e01b0319831614610481565b8080611cbf57506001600160a01b03821615155b15611d80575f611cce84611872565b90506001600160a01b03831615801590611cfa5750826001600160a01b0316816001600160a01b031614155b8015611d0d5750611d0b81846117b0565b155b15611d365760405163a9fbf51f60e01b81526001600160a01b03841660048201526024016105c1565b8115611d7e5783856001600160a01b0316826001600160a01b03167f8c5be1e5ebec7d5bd14f71427d1e84f3dd0314c0f7b2291e5b200ac8c7c3b92560405160405180910390a45b505b50505f90815260046020526040902080546001600160a01b0319166001600160a01b0392909216919091179055565b611db98383612012565b610d33335f858585611aa6565b5f5f611dd3858585612073565b90506001600160a01b038116611e2f57611e2a84600880545f838152600960205260408120829055600182018355919091527ff3f7a9fe364faab93b216da50a3214154f22a0a2b415b23a84c8169e8b636ee30155565b611e52565b846001600160a01b0316816001600160a01b031614611e5257611e528185612165565b6001600160a01b038516611e6e57611e69846121e2565b611934565b846001600160a01b0316816001600160a01b031614611934576119348585612289565b5f516020612f465f395f51905f5254600203610d1757604051633ee5aeb560e01b815260040160405180910390fd5b600b54600160a01b900460ff16610d1757604051638dfc202b60e01b815260040160405180910390fd5b600a80546001600160a01b038381166001600160a01b0319831681179093556040519116919082907f8be0079c531659141344cd1fd0a4f28419497f9722a3daafe3b4186f6b6457e0905f90a35050565b5f8072184f03e93ff9f4daa797ed6e38ed64bf6a1f0160401b8310611f795772184f03e93ff9f4daa797ed6e38ed64bf6a1f0160401b830492506040015b6d04ee2d6d415b85acef81000000008310611fa5576d04ee2d6d415b85acef8100000000830492506020015b662386f26fc100008310611fc357662386f26fc10000830492506010015b6305f5e1008310611fdb576305f5e100830492506008015b6127108310611fef57612710830492506004015b60648310612001576064830492506002015b600a83106104815760010192915050565b6001600160a01b03821661203b57604051633250574960e11b81525f60048201526024016105c1565b5f61204783835f611928565b90506001600160a01b03811615610d33576040516339e3563760e11b81525f60048201526024016105c1565b5f828152600260205260408120546001600160a01b039081169083161561209f5761209f8184866122d7565b6001600160a01b038116156120d9576120ba5f855f5f611cab565b6001600160a01b0381165f90815260036020526040902080545f190190555b6001600160a01b03851615612107576001600160a01b0385165f908152600360205260409020805460010190555b5f8481526002602052604080822080546001600160a01b0319166001600160a01b0389811691821790925591518793918516917fddf252ad1be2c89b69c2b068fc378daa952ba7f163c4a11628f55a4df523b3ef91a4949350505050565b5f61216f83610d97565b5f838152600760209081526040808320546001600160a01b03881684526006909252909120919250908183146121c4575f83815260208281526040808320548584528184208190558352600790915290208290555b5f938452600760209081526040808620869055938552525081205550565b6008545f906121f390600190612e01565b5f838152600960205260408120546008805493945090928490811061221a5761221a612b79565b905f5260205f2001549050806008838154811061223957612239612b79565b5f91825260208083209091019290925582815260099091526040808220849055858252812055600880548061227057612270612f31565b600190038181905f5260205f20015f9055905550505050565b5f600161229584610d97565b61229f9190612e01565b6001600160a01b039093165f908152600660209081526040808320868452825280832085905593825260079052919091209190915550565b6122e283838361233b565b610d33576001600160a01b03831661231057604051637e27328960e01b8152600481018290526024016105c1565b60405163177e802f60e01b81526001600160a01b0383166004820152602481018290526044016105c1565b5f6001600160a01b038316158015906119345750826001600160a01b0316846001600160a01b03161480612374575061237484846117b0565b806119345750505f908152600460205260409020546001600160a01b03908116911614919050565b60018301918390821561241c579160200282015f5b838211156123ee57835183826101000a81548160ff021916908360ff16021790555092602001926001016020815f010492830192600103026123b1565b801561241a5782816101000a81549060ff02191690556001016020815f010492830192600103026123ee565b505b5061242892915061248c565b5090565b6040518060e001604052806007906020820280368337509192915050565b6040518060e001604052806060815260200161246461242c565b81525f6020820181905260408201819052606082018190526080820181905260a09091015290565b5b80821115612428575f815560010161248d565b6001600160e01b031981168114610e2e575f5ffd5b5f602082840312156124c5575f5ffd5b8135611624816124a0565b5f81518084528060208401602086015e5f602082860101526020601f19601f83011685010191505092915050565b602081525f61162460208301846124d0565b5f60208284031215612520575f5ffd5b5035919050565b80356001600160a01b038116811461253d575f5ffd5b919050565b5f5f60408385031215612553575f5ffd5b61255c83612527565b946020939093013593505050565b5f5f83601f84011261257a575f5ffd5b5081356001600160401b03811115612590575f5ffd5b6020830191508360208260051b85010111156125aa575f5ffd5b9250929050565b5f5f83601f8401126125c1575f5ffd5b5081356001600160401b038111156125d7575f5ffd5b60208301915083602060e0830285010111156125aa575f5ffd5b5f5f5f5f5f5f5f5f5f5f5f60c08c8e03121561260b575f5ffd5b6126148c612527565b9a5060208c01356001600160401b0381111561262e575f5ffd5b61263a8e828f0161256a565b909b5099505060408c01356001600160401b03811115612658575f5ffd5b6126648e828f0161256a565b90995097505060608c01356001600160401b03811115612682575f5ffd5b61268e8e828f016125b1565b90975095505060808c01356001600160401b038111156126ac575f5ffd5b6126b88e828f0161256a565b90955093505060a08c01356001600160401b038111156126d6575f5ffd5b6126e28e828f0161256a565b915080935050809150509295989b509295989b9093969950565b5f5f5f6060848603121561270e575f5ffd5b61271784612527565b925061272560208501612527565b929592945050506040919091013590565b5f5f5f5f5f5f6060878903121561274b575f5ffd5b86356001600160401b03811115612760575f5ffd5b61276c89828a0161256a565b90975095505060208701356001600160401b0381111561278a575f5ffd5b61279689828a0161256a565b90955093505060408701356001600160401b038111156127b4575f5ffd5b6127c089828a0161256a565b979a9699509497509295939492505050565b5f602082840312156127e2575f5ffd5b61162482612527565b5f5f604083850312156127fc575f5ffd5b61280583612527565b915060208301358015158114612819575f5ffd5b809150509250929050565b60e0810181835f5b600781101561284e57815160ff1683526020928301929091019060010161282c565b50505092915050565b634e487b7160e01b5f52604160045260245ffd5b5f5f5f5f6080858703121561287e575f5ffd5b61288785612527565b935061289560208601612527565b92506040850135915060608501356001600160401b038111156128b6575f5ffd5b8501601f810187136128c6575f5ffd5b80356001600160401b038111156128df576128df612857565b604051601f8201601f19908116603f011681016001600160401b038111828210171561290d5761290d612857565b604052818152828201602001891015612924575f5ffd5b816020840160208301375f6020838301015280935050505092959194509250565b80355f81900b811461253d575f5ffd5b803561ffff8116811461253d575f5ffd5b5f5f5f60608486031215612978575f5ffd5b8335925061298860208501612945565b915061299660408501612955565b90509250925092565b8060e08101831015610481575f5ffd5b803560ff8116811461253d575f5ffd5b5f5f5f5f5f5f5f610180888a0312156129d6575f5ffd5b6129df88612527565b96506020880135955060408801356001600160401b03811115612a00575f5ffd5b8801601f81018a13612a10575f5ffd5b80356001600160401b03811115612a25575f5ffd5b8a6020828401011115612a36575f5ffd5b60209190910195509350612a4d8960608a0161299f565b9250612a5c61014089016129af565b9699959850939692959194919350506101609091013590565b602081525f82516101a06020840152612a926101c08401826124d0565b90506020840151604084015f5b6007811015612ac157825160ff16825260209283019290910190600101612a9f565b5050506040840151612ad86101208501825f0b9052565b506060840151610140840152608084015160ff1661016084015260a084015161ffff90811661018085015260c08501519081166101a0850152611c54565b5f5f60408385031215612b27575f5ffd5b612b3083612527565b9150612b3e60208401612527565b90509250929050565b600181811c90821680612b5b57607f821691505b6020821081036111bb57634e487b7160e01b5f52602260045260245ffd5b634e487b7160e01b5f52603260045260245ffd5b5f5f8335601e19843603018112612ba2575f5ffd5b8301803591506001600160401b03821115612bbb575f5ffd5b6020019150368190038213156125aa575f5ffd5b5f60208284031215612bdf575f5ffd5b611624826129af565b601f821115610d3357805f5260205f20601f840160051c81016020851015612c0d5750805b601f840160051c820191505b81811015611bc5575f8155600101612c19565b81516001600160401b03811115612c4557612c45612857565b612c5981612c538454612b47565b84612be8565b6020601f821160018114612c8b575f8315612c745750848201515b5f19600385901b1c1916600184901b178455611bc5565b5f84815260208120601f198516915b82811015612cba5787850151825560209485019460019092019101612c9a565b5084821015612cd757868401515f19600387901b60f8161c191681555b50505050600190811b01905550565b61010081528261010082015282846101208301375f61012084830101525f610120601f19601f860116830101905060208201835f5b6007811015612d455760ff612d2f836129af565b1683526020928301929190910190600101612d1b565b505050949350505050565b5f60208284031215612d60575f5ffd5b61162482612945565b5f60208284031215612d79575f5ffd5b61162482612955565b634e487b7160e01b5f52601160045260245ffd5b61ffff818116838216019081111561048157610481612d82565b8082018281125f831280158216821582161715612dcf57612dcf612d82565b505092915050565b808202811582820484141761048157610481612d82565b8082018082111561048157610481612d82565b8181038181111561048157610481612d82565b634e487b7160e01b5f52601260045260245ffd5b5f82612e3657612e36612e14565b500490565b60ff818116838216019081111561048157610481612d82565b8082025f8212600160ff1b84141615612e6f57612e6f612d82565b818105831482151761048157610481612d82565b5f82612e9157612e91612e14565b600160ff1b82145f1984141615612eaa57612eaa612d82565b500590565b5f81518060208401855e5f93019283525090919050565b5f611934612ed48386612eaf565b84612eaf565b6001600160a01b03858116825284166020820152604081018390526080606082018190525f90612f0c908301846124d0565b9695505050505050565b5f60208284031215612f26575f5ffd5b8151611624816124a0565b634e487b7160e01b5f52603160045260245ffdfe9b779b17422d0df92223018b32b4d1fa46e071723d6817e2486d003becc55f00a2646970667358221220a64b700f591e281a81adc4d4e101bf078d3cd799dbca161e8029a3f6c5f8163964736f6c634300081c0033","linkReferences":{}},"methodIdentifiers":{"acceptOwnership()":"79ba5097","approve(address,uint256)":"095ea7b3","balanceOf(address)":"70a08231","batchUpdateForm(uint256[],int8[],uint16[])":"3555ad79","getApproved(uint256)":"081812fc","getEffectiveSkills(uint256)":"b7c699ba","getPlayer(uint256)":"e55ae4e8","isApprovedForAll(address,address)":"e985e9c5","mintBatch(address,uint256[],string[],uint8[7][],uint8[],uint256[])":"23497f8a","mintPlayer(address,uint256,string,uint8[7],uint8,uint256)":"c735abf4","name()":"06fdde03","oracle()":"7dc0d1d0","owner()":"8da5cb5b","ownerOf(uint256)":"6352211e","pause()":"8456cb59","paused()":"5c975abb","pendingOwner()":"e30c3978","renounceOwnership()":"715018a6","resetSeason(uint256)":"932998a4","safeTransferFrom(address,address,uint256)":"42842e0e","safeTransferFrom(address,address,uint256,bytes)":"b88d4fde","setApprovalForAll(address,bool)":"a22cb465","setOracle(address)":"7adbf973","supportsInterface(bytes4)":"01ffc9a7","symbol()":"95d89b41","tokenByIndex(uint256)":"4f6ccce7","tokenOfOwnerByIndex(address,uint256)":"2f745c59","tokenURI(uint256)":"c87b56dd","totalSupply()":"18160ddd","transferFrom(address,address,uint256)":"23b872dd","transferOwnership(address)":"f2fde38b","unpause()":"3f4ba83a","updateForm(uint256,int8,uint16)":"c1d83d8b"},"id":28}