{"abi":[{"type":"constructor","inputs":[{"name":"_playerNFT","type":"address","internalType":"address"},{"name":"_sensiToken","type":"address","internalType":"address"}],"stateMutability":"nonpayable"},{"type":"function","name":"acceptOwnership","inputs":[],"outputs":[],"stateMutability":"nonpayable"},{"type":"function","name":"currentSeason","inputs":[],"outputs":[{"name":"","type":"uint256","internalType":"uint256"}],"stateMutability":"view"},{"type":"function","name":"getMatchday","inputs":[],"outputs":[{"name":"","type":"uint256","internalType":"uint256"}],"stateMutability":"view"},{"type":"function","name":"getStandings","inputs":[{"name":"season","type":"uint256","internalType":"uint256"}],"outputs":[{"name":"","type":"bytes32[]","internalType":"bytes32[]"}],"stateMutability":"view"},{"type":"function","name":"getTeam","inputs":[{"name":"season","type":"uint256","internalType":"uint256"},{"name":"teamCode","type":"bytes32","internalType":"bytes32"}],"outputs":[{"name":"","type":"tuple","internalType":"struct LeagueManager.Team","components":[{"name":"manager","type":"address","internalType":"address"},{"name":"playerTokenIds","type":"uint256[]","internalType":"uint256[]"},{"name":"points","type":"uint256","internalType":"uint256"},{"name":"goalsFor","type":"uint256","internalType":"uint256"},{"name":"goalsAgainst","type":"uint256","internalType":"uint256"},{"name":"registered","type":"bool","internalType":"bool"}]}],"stateMutability":"view"},{"type":"function","name":"leagueMultipliers","inputs":[{"name":"","type":"bytes32","internalType":"bytes32"}],"outputs":[{"name":"","type":"uint256","internalType":"uint256"}],"stateMutability":"view"},{"type":"function","name":"matchday","inputs":[],"outputs":[{"name":"","type":"uint256","internalType":"uint256"}],"stateMutability":"view"},{"type":"function","name":"owner","inputs":[],"outputs":[{"name":"","type":"address","internalType":"address"}],"stateMutability":"view"},{"type":"function","name":"pause","inputs":[],"outputs":[],"stateMutability":"nonpayable"},{"type":"function","name":"paused","inputs":[],"outputs":[{"name":"","type":"bool","internalType":"bool"}],"stateMutability":"view"},{"type":"function","name":"pendingOwner","inputs":[],"outputs":[{"name":"","type":"address","internalType":"address"}],"stateMutability":"view"},{"type":"function","name":"playerNFT","inputs":[],"outputs":[{"name":"","type":"address","internalType":"contract SWOSPlayerNFT"}],"stateMutability":"view"},{"type":"function","name":"registerTeam","inputs":[{"name":"teamCode","type":"bytes32","internalType":"bytes32"},{"name":"playerTokenIds","type":"uint256[]","internalType":"uint256[]"}],"outputs":[],"stateMutability":"nonpayable"},{"type":"function","name":"renounceOwnership","inputs":[],"outputs":[],"stateMutability":"nonpayable"},{"type":"function","name":"seasonState","inputs":[],"outputs":[{"name":"","type":"uint8","internalType":"enum LeagueManager.SeasonState"}],"stateMutability":"view"},{"type":"function","name":"seasonTeams","inputs":[{"name":"","type":"uint256","internalType":"uint256"},{"name":"","type":"uint256","internalType":"uint256"}],"outputs":[{"name":"","type":"bytes32","internalType":"bytes32"}],"stateMutability":"view"},{"type":"function","name":"sensiToken","inputs":[],"outputs":[{"name":"","type":"address","internalType":"contract SENSIToken"}],"stateMutability":"view"},{"type":"function","name":"setLeagueMultiplier","inputs":[{"name":"league","type":"string","internalType":"string"},{"name":"multiplier","type":"uint256","internalType":"uint256"}],"outputs":[],"stateMutability":"nonpayable"},{"type":"function","name":"setWageRate","inputs":[{"name":"newRate","type":"uint256","internalType":"uint256"}],"outputs":[],"stateMutability":"nonpayable"},{"type":"function","name":"settleMatchday","inputs":[{"name":"homeTeams","type":"bytes32[]","internalType":"bytes32[]"},{"name":"awayTeams","type":"bytes32[]","internalType":"bytes32[]"},{"name":"homeGoals","type":"uint256[]","internalType":"uint256[]"},{"name":"awayGoals","type":"uint256[]","internalType":"uint256[]"}],"outputs":[],"stateMutability":"nonpayable"},{"type":"function","name":"settleSeason","inputs":[{"name":"winnerCode","type":"bytes32","internalType":"bytes32"},{"name":"topScorerTokenId","type":"uint256","internalType":"uint256"}],"outputs":[],"stateMutability":"nonpayable"},{"type":"function","name":"startSeason","inputs":[],"outputs":[],"stateMutability":"nonpayable"},{"type":"function","name":"teams","inputs":[{"name":"","type":"uint256","internalType":"uint256"},{"name":"","type":"bytes32","internalType":"bytes32"}],"outputs":[{"name":"manager","type":"address","internalType":"address"},{"name":"points","type":"uint256","internalType":"uint256"},{"name":"goalsFor","type":"uint256","internalType":"uint256"},{"name":"goalsAgainst","type":"uint256","internalType":"uint256"},{"name":"registered","type":"bool","internalType":"bool"}],"stateMutability":"view"},{"type":"function","name":"transferOwnership","inputs":[{"name":"newOwner","type":"address","internalType":"address"}],"outputs":[],"stateMutability":"nonpayable"},{"type":"function","name":"unpause","inputs":[],"outputs":[],"stateMutability":"nonpayable"},{"type":"function","name":"wageRatePerMatch","inputs":[],"outputs":[{"name":"","type":"uint256","internalType":"uint256"}],"stateMutability":"view"},{"type":"event","name":"BonusPaid","inputs":[{"name":"season","type":"uint256","indexed":true,"internalType":"uint256"},{"name":"bonusType","type":"string","indexed":false,"internalType":"string"},{"name":"recipient","type":"address","indexed":false,"internalType":"address"},{"name":"amount","type":"uint256","indexed":false,"internalType":"uint256"}],"anonymous":false},{"type":"event","name":"MatchdaySettled","inputs":[{"name":"season","type":"uint256","indexed":true,"internalType":"uint256"},{"name":"matchday","type":"uint256","indexed":false,"internalType":"uint256"}],"anonymous":false},{"type":"event","name":"OwnershipTransferStarted","inputs":[{"name":"previousOwner","type":"address","indexed":true,"internalType":"address"},{"name":"newOwner","type":"address","indexed":true,"internalType":"address"}],"anonymous":false},{"type":"event","name":"OwnershipTransferred","inputs":[{"name":"previousOwner","type":"address","indexed":true,"internalType":"address"},{"name":"newOwner","type":"address","indexed":true,"internalType":"address"}],"anonymous":false},{"type":"event","name":"Paused","inputs":[{"name":"account","type":"address","indexed":false,"internalType":"address"}],"anonymous":false},{"type":"event","name":"SeasonSettled","inputs":[{"name":"season","type":"uint256","indexed":true,"internalType":"uint256"},{"name":"winner","type":"bytes32","indexed":false,"internalType":"bytes32"},{"name":"topScorer","type":"bytes32","indexed":false,"internalType":"bytes32"}],"anonymous":false},{"type":"event","name":"SeasonStarted","inputs":[{"name":"season","type":"uint256","indexed":true,"internalType":"uint256"},{"name":"teamCount","type":"uint256","indexed":false,"internalType":"uint256"}],"anonymous":false},{"type":"event","name":"TeamRegistered","inputs":[{"name":"season","type":"uint256","indexed":true,"internalType":"uint256"},{"name":"teamCode","type":"bytes32","indexed":true,"internalType":"bytes32"},{"name":"manager","type":"address","indexed":false,"internalType":"address"}],"anonymous":false},{"type":"event","name":"Unpaused","inputs":[{"name":"account","type":"address","indexed":false,"internalType":"address"}],"anonymous":false},{"type":"event","name":"WagesDistributed","inputs":[{"name":"season","type":"uint256","indexed":true,"internalType":"uint256"},{"name":"matchday","type":"uint256","indexed":false,"internalType":"uint256"},{"name":"totalWages","type":"uint256","indexed":false,"internalType":"uint256"}],"anonymous":false},{"type":"error","name":"EnforcedPause","inputs":[]},{"type":"error","name":"ExpectedPause","inputs":[]},{"type":"error","name":"OwnableInvalidOwner","inputs":[{"name":"owner","type":"address","internalType":"address"}]},{"type":"error","name":"OwnableUnauthorizedAccount","inputs":[{"name":"account","type":"address","internalType":"address"}]},{"type":"error","name":"ReentrancyGuardReentrantCall","inputs":[]}],"bytecode":{"object":"0x6080604052670de0b6b3a764000060095534801561001b575f5ffd5b50604051611e76380380611e7683398101604081905261003a91610253565b338061005f57604051631e4fbdf760e01b81525f600482015260240160405180910390fd5b610068816101cd565b5060017f9b779b17422d0df92223018b32b4d1fa46e071723d6817e2486d003becc55f0055600280546001600160a01b039384166001600160a01b0319918216179091556003805492909316911617905560016004556005805460ff19169055600a60205260b47f756497e3196f6601282f8332afa68254545f5c1c2260496b7ecec43292132e7e5560967fb28757a7df8dc29f3039a892d89301d30a48194cfa98875883d115fb6e255ca35560827f904c6bf337f3a6a0cb0d430e87ae71d512e1ccc65a594d59340af0bf5e59310a8190557f40891aa2a968e7a0c98c3d83f9301bf1a1a62ddc468df7c00ab2da22a52b93465560787f7986897619b62663b2d203c3cf84f3376033aed78c38d70e0e31a8d2389d2016557fcfee7c08a98f4b565d124c7e4e28acc52e1bc780e3887db0a02a7d2d5bc667285f5260647f482abed5414141b35fda67f8db1848c94921f6b63047585c64e2102ce72ad3c755610284565b600180546001600160a01b03191690556101e6816101e9565b50565b5f80546001600160a01b038381166001600160a01b0319831681178455604051919092169283917f8be0079c531659141344cd1fd0a4f28419497f9722a3daafe3b4186f6b6457e09190a35050565b80516001600160a01b038116811461024e575f5ffd5b919050565b5f5f60408385031215610264575f5ffd5b61026d83610238565b915061027b60208401610238565b90509250929050565b611be5806102915f395ff3fe608060405234801561000f575f5ffd5b5060043610610187575f3560e01c80637b073e43116100d9578063b373956a11610093578063bcb396211161006e578063bcb39621146103b7578063e30c3978146103c0578063eb8e2701146103d1578063f2fde38b146103da575f5ffd5b8063b373956a1461037e578063bb05f6bb14610391578063bb340841146103a4575f5ffd5b80637b073e431461030c5780638456cb591461032b57806388850d5f146103335780638da5cb5b14610346578063952a963314610356578063aa2efc171461035e575f5ffd5b806356049d8b116101445780636dcf117c1161011f5780636dcf117c146102cf57806370cc5215146102e2578063715018a6146102fc57806379ba509714610304575f5ffd5b806356049d8b146102a15780635c975abb146102a957806363412349146102c6575f5ffd5b806312f5cddb1461018b5780632274cbc7146101b157806328af4a8a146101d15780632e6596f51461025957806333e2f7cb1461026e5780633f4ba83a14610299575b5f5ffd5b61019e6101993660046117aa565b6103ed565b6040519081526020015b60405180910390f35b6101c46101bf3660046117aa565b610418565b6040516101a891906117ca565b6102256101df3660046117aa565b600760209081525f9283526040808420909152908252902080546002820154600383015460048401546005909401546001600160a01b0390931693919290919060ff1685565b604080516001600160a01b03909616865260208601949094529284019190915260608301521515608082015260a0016101a8565b61026c6102673660046118aa565b610511565b005b600354610281906001600160a01b031681565b6040516001600160a01b0390911681526020016101a8565b61026c610785565b60065461019e565b600154600160a01b900460ff1660405190151581526020016101a8565b61019e60095481565b61026c6102dd3660046118f2565b610797565b6005546102ef9060ff1681565b6040516101a8919061191d565b61026c6107a4565b61026c6107b5565b61019e61031a3660046118f2565b600a6020525f908152604090205481565b61026c6107f9565b600254610281906001600160a01b031681565b5f546001600160a01b0316610281565b61026c610809565b61037161036c3660046118f2565b610923565b6040516101a89190611943565b61026c61038c366004611985565b610982565b61026c61039f3660046119f7565b6109bc565b61026c6103b23660046117aa565b610d89565b61019e60045481565b6001546001600160a01b0316610281565b61019e60065481565b61026c6103e8366004611ad9565b6113f1565b6008602052815f5260405f208181548110610406575f80fd5b905f5260205f20015f91509150505481565b6104576040518060c001604052805f6001600160a01b03168152602001606081526020015f81526020015f81526020015f81526020015f151581525090565b5f838152600760209081526040808320858452825291829020825160c08101845281546001600160a01b03168152600182018054855181860281018601909652808652919492938581019392908301828280156104d157602002820191905f5260205f20905b8154815260200190600101908083116104bd575b505050918352505060028201546020820152600382015460408201526004820154606082015260059091015460ff16151560809091015290505b92915050565b610519611461565b5f60055460ff16600281111561053157610531611909565b1461057c5760405162461bcd60e51b81526020600482015260166024820152754e6f7420726567697374726174696f6e20706861736560501b60448201526064015b60405180910390fd5b6004545f90815260076020908152604080832086845290915290206005015460ff16156105e05760405162461bcd60e51b8152602060048201526012602482015271105b1c9958591e481c9959da5cdd195c995960721b6044820152606401610573565b600b8110156106315760405162461bcd60e51b815260206004820152601860248201527f4e656564206174206c6561737420313120706c617965727300000000000000006044820152606401610573565b6040518060c00160405280336001600160a01b031681526020018383808060200260200160405190810160405280939291908181526020018383602002808284375f9201829052509385525050506020808301829052604080840183905260608401839052600160809094018490526004548352600782528083208884528252909120835181546001600160a01b0319166001600160a01b0390911617815583820151805191936106e8939085019291019061174d565b50604082810151600283015560608301516003830155608083015160048084019190915560a0909301516005909201805460ff19169215159290921790915581545f908152600860209081528282208054600181018255908352918190209091018690559154905133815285927ff408829a865b7498887e1b4952a81ef90dc206573ff85e7e0590f98c56aae805910160405180910390a3505050565b61078d61148c565b6107956114b8565b565b61079f61148c565b600955565b6107ac61148c565b6107955f61150d565b60015433906001600160a01b031681146107ed5760405163118cdaa760e01b81526001600160a01b0382166004820152602401610573565b6107f68161150d565b50565b61080161148c565b610795611526565b61081161148c565b5f60055460ff16600281111561082957610829611909565b1461086f5760405162461bcd60e51b81526020600482015260166024820152754e6f7420726567697374726174696f6e20706861736560501b6044820152606401610573565b6004545f90815260086020526040902054600211156108c85760405162461bcd60e51b81526020600482015260156024820152744e656564206174206c656173742032207465616d7360581b6044820152606401610573565b6005805460ff191660011790555f60068190556004548082526008602090815260409283902054925192835290917f8d160eff266df162107c57259a1f1e71787bd4ab800800826bd189d6f2f3e83c910160405180910390a2565b5f8181526008602090815260409182902080548351818402810184019094528084526060939283018282801561097657602002820191905f5260205f20905b815481526020019060010190808311610962575b50505050509050919050565b61098a61148c565b80600a5f858560405161099e929190611afb565b604051809103902081526020019081526020015f2081905550505050565b6109c461148c565b6109cc611569565b6109d4611461565b600160055460ff1660028111156109ed576109ed611909565b14610a2e5760405162461bcd60e51b8152602060048201526011602482015270536561736f6e206e6f742061637469766560781b6044820152606401610573565b8685148015610a3c57508683145b8015610a4757508681145b610a845760405162461bcd60e51b815260206004820152600e60248201526d082e4e4c2f240dad2e6dac2e8c6d60931b6044820152606401610573565b60068054905f610a9383611b1e565b909155505f9050805b88811015610cea576004545f908152600760205260408120818c8c85818110610ac757610ac7611b36565b9050602002013581526020019081526020015f2090505f60075f60045481526020019081526020015f205f8b8b86818110610b0457610b04611b36565b9050602002013581526020019081526020015f209050878784818110610b2c57610b2c611b36565b90506020020135826003015f828254610b459190611b4a565b909155508690508584818110610b5d57610b5d611b36565b90506020020135826004015f828254610b769190611b4a565b909155508690508584818110610b8e57610b8e611b36565b90506020020135816003015f828254610ba79190611b4a565b909155508890508784818110610bbf57610bbf611b36565b90506020020135816004015f828254610bd89190611b4a565b909155508690508584818110610bf057610bf0611b36565b90506020020135888885818110610c0957610c09611b36565b905060200201351115610c35576003826002015f828254610c2a9190611b4a565b90915550610cb69050565b858584818110610c4757610c47611b36565b90506020020135888885818110610c6057610c60611b36565b905060200201351015610c81576003816002015f828254610c2a9190611b4a565b6001826002015f828254610c959190611b4a565b925050819055506001816002015f828254610cb09190611b4a565b90915550505b610cbf82611584565b610cc99085611b4a565b9350610cd481611584565b610cde9085611b4a565b93505050600101610a9c565b506004547f4fcd9a54a123ebb8e71a1c20249e0094177e8ec57b32f6f8527f4a60b5a1228e600654604051610d2191815260200190565b60405180910390a260045460065460408051918252602082018490527f87433e7e895e8f2c9761e59f4bd3187ceedf605599c40eaf8028d2ebf3d54741910160405180910390a250610d7f60015f516020611b905f395f51905f5255565b5050505050505050565b610d9161148c565b610d99611569565b600160055460ff166002811115610db257610db2611909565b14610df35760405162461bcd60e51b8152602060048201526011602482015270536561736f6e206e6f742061637469766560781b6044820152606401610573565b6004545f9081526007602090815260408083208584529091529020600581015460ff16610e5a5760405162461bcd60e51b815260206004820152601560248201527415da5b9b995c881b9bdd081c9959da5cdd195c9959605a1b6044820152606401610573565b6003548154604080516301d84ae360e31b815290516001600160a01b03938416936340c10f199316918491630ec25718916004808201926020929091908290030181865afa158015610eae573d5f5f3e3d5ffd5b505050506040513d601f19601f82011682018060405250810190610ed29190611b5d565b6040516001600160e01b031960e085901b1681526001600160a01b03909216600483015260248201526044015f604051808303815f87803b158015610f15575f5ffd5b505af1158015610f27573d5f5f3e3d5ffd5b5050600480548454600354604080516301d84ae360e31b815290519396507fc615769bd14173207564de55c3e476e6b440881293f6ca96dcccfe7cc5ac824f95506001600160a01b03928316949190921692630ec257189280830192602092918290030181865afa158015610f9e573d5f5f3e3d5ffd5b505050506040513d601f19601f82011682018060405250810190610fc29190611b5d565b604080516060808252600d908201526c3632b0b3bab2afbbb4b73732b960991b60808201526001600160a01b03909316602084015282015260a00160405180910390a26002546040516331a9108f60e11b8152600481018490525f916001600160a01b031690636352211e90602401602060405180830381865afa15801561104c573d5f5f3e3d5ffd5b505050506040513d601f19601f820116820180604052508101906110709190611b74565b60035460408051632f7b769360e01b815290519293506001600160a01b03909116916340c10f199184918491632f7b76939160048083019260209291908290030181865afa1580156110c4573d5f5f3e3d5ffd5b505050506040513d601f19601f820116820180604052508101906110e89190611b5d565b6040516001600160e01b031960e085901b1681526001600160a01b03909216600483015260248201526044015f604051808303815f87803b15801561112b575f5ffd5b505af115801561113d573d5f5f3e3d5ffd5b505050506004547fc615769bd14173207564de55c3e476e6b440881293f6ca96dcccfe7cc5ac824f8260035f9054906101000a90046001600160a01b03166001600160a01b0316632f7b76936040518163ffffffff1660e01b8152600401602060405180830381865afa1580156111b6573d5f5f3e3d5ffd5b505050506040513d601f19601f820116820180604052508101906111da9190611b5d565b604080516060808252600a90820152693a37b82fb9b1b7b932b960b11b60808201526001600160a01b03909316602084015282015260a00160405180910390a26004545f9081526008602090815260408083208054825181850281018501909352808352919290919083018282801561127057602002820191905f5260205f20905b81548152602001906001019080831161125c575b509394505f93505050505b8151811015611368576004545f908152600760205260408120835182908590859081106112aa576112aa611b36565b602002602001015181526020019081526020015f2090505f5f90505b600182015481101561135e576002546001830180546001600160a01b039092169163932998a49190849081106112fe576112fe611b36565b905f5260205f2001546040518263ffffffff1660e01b815260040161132591815260200190565b5f604051808303815f87803b15801561133c575f5ffd5b505af115801561134e573d5f5f3e3d5ffd5b5050600190920191506112c69050565b505060010161127b565b506005805460ff1916600217905560045460408051878152602081018790527f9ff2a48ee5a6025704c9e21298d368fed9f483406f794029df1b47d74b6a2663910160405180910390a260048054905f6113c183611b1e565b90915550506005805460ff1916905550505f600655506113ed60015f516020611b905f395f51905f5255565b5050565b6113f961148c565b600180546001600160a01b0383166001600160a01b031990911681179091556114295f546001600160a01b031690565b6001600160a01b03167f38d16b8cac22d99fc7c124b9cd0de2d3fa1faef420bfe791d8c362d765e2270060405160405180910390a350565b600154600160a01b900460ff16156107955760405163d93c066560e01b815260040160405180910390fd5b5f546001600160a01b031633146107955760405163118cdaa760e01b8152336004820152602401610573565b6114c06116a5565b6001805460ff60a01b191690557f5db9ee0a495bf2e6ff9c91a7834c1ba4fdd244a5e8aa4e537bd38aeae4b073aa335b6040516001600160a01b03909116815260200160405180910390a1565b600180546001600160a01b03191690556107f6816116cf565b61152e611461565b6001805460ff60a01b1916600160a01b1790557f62e78cea01bee320cd4e420270b5ea74000d11b0c9f74754ebdbfc544b05a2586114f03390565b61157161171e565b60025f516020611b905f395f51905f5255565b5f805b600183015481101561169f575f8360010182815481106115a9576115a9611b36565b5f9182526020822001546002546040516331a9108f60e11b8152600481018390529193506001600160a01b031690636352211e90602401602060405180830381865afa1580156115fb573d5f5f3e3d5ffd5b505050506040513d601f19601f8201168201806040525081019061161f9190611b74565b600354600954604051630a05b10b60e11b81526001600160a01b0380851660048301526024820192909252929350169063140b6216906044015f604051808303815f87803b15801561166f575f5ffd5b505af1158015611681573d5f5f3e3d5ffd5b50505050600954846116939190611b4a565b93505050600101611587565b50919050565b600154600160a01b900460ff1661079557604051638dfc202b60e01b815260040160405180910390fd5b5f80546001600160a01b038381166001600160a01b0319831681178455604051919092169283917f8be0079c531659141344cd1fd0a4f28419497f9722a3daafe3b4186f6b6457e09190a35050565b5f516020611b905f395f51905f525460020361079557604051633ee5aeb560e01b815260040160405180910390fd5b828054828255905f5260205f20908101928215611786579160200282015b8281111561178657825182559160200191906001019061176b565b50611792929150611796565b5090565b5b80821115611792575f8155600101611797565b5f5f604083850312156117bb575f5ffd5b50508035926020909101359150565b602080825282516001600160a01b0316828201528281015160c06040840152805160e084018190525f92919091019082906101008501905b808310156118255783518252602082019150602084019350600183019250611802565b506040860151606086015260608601516080860152608086015160a086015260a0860151925061185960c086018415159052565b95945050505050565b5f5f83601f840112611872575f5ffd5b50813567ffffffffffffffff811115611889575f5ffd5b6020830191508360208260051b85010111156118a3575f5ffd5b9250929050565b5f5f5f604084860312156118bc575f5ffd5b83359250602084013567ffffffffffffffff8111156118d9575f5ffd5b6118e586828701611862565b9497909650939450505050565b5f60208284031215611902575f5ffd5b5035919050565b634e487b7160e01b5f52602160045260245ffd5b602081016003831061193d57634e487b7160e01b5f52602160045260245ffd5b91905290565b602080825282518282018190525f918401906040840190835b8181101561197a57835183526020938401939092019160010161195c565b509095945050505050565b5f5f5f60408486031215611997575f5ffd5b833567ffffffffffffffff8111156119ad575f5ffd5b8401601f810186136119bd575f5ffd5b803567ffffffffffffffff8111156119d3575f5ffd5b8660208284010111156119e4575f5ffd5b6020918201979096509401359392505050565b5f5f5f5f5f5f5f5f6080898b031215611a0e575f5ffd5b883567ffffffffffffffff811115611a24575f5ffd5b611a308b828c01611862565b909950975050602089013567ffffffffffffffff811115611a4f575f5ffd5b611a5b8b828c01611862565b909750955050604089013567ffffffffffffffff811115611a7a575f5ffd5b611a868b828c01611862565b909550935050606089013567ffffffffffffffff811115611aa5575f5ffd5b611ab18b828c01611862565b999c989b5096995094979396929594505050565b6001600160a01b03811681146107f6575f5ffd5b5f60208284031215611ae9575f5ffd5b8135611af481611ac5565b9392505050565b818382375f9101908152919050565b634e487b7160e01b5f52601160045260245ffd5b5f60018201611b2f57611b2f611b0a565b5060010190565b634e487b7160e01b5f52603260045260245ffd5b8082018082111561050b5761050b611b0a565b5f60208284031215611b6d575f5ffd5b5051919050565b5f60208284031215611b84575f5ffd5b8151611af481611ac556fe9b779b17422d0df92223018b32b4d1fa46e071723d6817e2486d003becc55f00a2646970667358221220426bd9b29b6ad8c2a1530aaa969f9914621d32946b0cc6e72481f2631aefb31164736f6c634300081c0033","linkReferences":{}},"methodIdentifiers":{"acceptOwnership()":"79ba5097","currentSeason()":"bcb39621","getMatchday()":"56049d8b","getStandings(uint256)":"aa2efc17","getTeam(uint256,bytes32)":"2274cbc7","leagueMultipliers(bytes32)":"7b073e43","matchday()":"eb8e2701","owner()":"8da5cb5b","pause()":"8456cb59","paused()":"5c975abb","pendingOwner()":"e30c3978","playerNFT()":"88850d5f","registerTeam(bytes32,uint256[])":"2e6596f5","renounceOwnership()":"715018a6","seasonState()":"70cc5215","seasonTeams(uint256,uint256)":"12f5cddb","sensiToken()":"33e2f7cb","setLeagueMultiplier(string,uint256)":"b373956a","setWageRate(uint256)":"6dcf117c","settleMatchday(bytes32[],bytes32[],uint256[],uint256[])":"bb05f6bb","settleSeason(bytes32,uint256)":"bb340841","startSeason()":"952a9633","teams(uint256,bytes32)":"28af4a8a","transferOwnership(address)":"f2fde38b","unpause()":"3f4ba83a","wageRatePerMatch()":"63412349"},"id":26}