{"abi":[{"type":"constructor","inputs":[{"name":"_playerNFT","type":"address","internalType":"address"},{"name":"_sensiToken","type":"address","internalType":"address"},{"name":"_treasury","type":"address","internalType":"address"}],"stateMutability":"nonpayable"},{"type":"function","name":"BID_WINDOW","inputs":[],"outputs":[{"name":"","type":"uint256","internalType":"uint256"}],"stateMutability":"view"},{"type":"function","name":"FEE_BPS","inputs":[],"outputs":[{"name":"","type":"uint256","internalType":"uint256"}],"stateMutability":"view"},{"type":"function","name":"acceptOwnership","inputs":[],"outputs":[],"stateMutability":"nonpayable"},{"type":"function","name":"cancelListing","inputs":[{"name":"listingId","type":"uint256","internalType":"uint256"}],"outputs":[],"stateMutability":"nonpayable"},{"type":"function","name":"createLoan","inputs":[{"name":"tokenId","type":"uint256","internalType":"uint256"},{"name":"borrower","type":"address","internalType":"address"},{"name":"durationDays","type":"uint256","internalType":"uint256"},{"name":"fee","type":"uint256","internalType":"uint256"}],"outputs":[],"stateMutability":"nonpayable"},{"type":"function","name":"listPlayer","inputs":[{"name":"tokenId","type":"uint256","internalType":"uint256"},{"name":"minPrice","type":"uint256","internalType":"uint256"},{"name":"releaseClause","type":"uint256","internalType":"uint256"}],"outputs":[],"stateMutability":"nonpayable"},{"type":"function","name":"listings","inputs":[{"name":"","type":"uint256","internalType":"uint256"}],"outputs":[{"name":"seller","type":"address","internalType":"address"},{"name":"tokenId","type":"uint256","internalType":"uint256"},{"name":"minPrice","type":"uint256","internalType":"uint256"},{"name":"releaseClause","type":"uint256","internalType":"uint256"},{"name":"deadline","type":"uint256","internalType":"uint256"},{"name":"highestBid","type":"uint256","internalType":"uint256"},{"name":"highestBidder","type":"address","internalType":"address"},{"name":"active","type":"bool","internalType":"bool"}],"stateMutability":"view"},{"type":"function","name":"loans","inputs":[{"name":"","type":"uint256","internalType":"uint256"}],"outputs":[{"name":"lender","type":"address","internalType":"address"},{"name":"borrower","type":"address","internalType":"address"},{"name":"tokenId","type":"uint256","internalType":"uint256"},{"name":"recallDate","type":"uint256","internalType":"uint256"},{"name":"fee","type":"uint256","internalType":"uint256"},{"name":"active","type":"bool","internalType":"bool"}],"stateMutability":"view"},{"type":"function","name":"nextListingId","inputs":[],"outputs":[{"name":"","type":"uint256","internalType":"uint256"}],"stateMutability":"view"},{"type":"function","name":"nextLoanId","inputs":[],"outputs":[{"name":"","type":"uint256","internalType":"uint256"}],"stateMutability":"view"},{"type":"function","name":"owner","inputs":[],"outputs":[{"name":"","type":"address","internalType":"address"}],"stateMutability":"view"},{"type":"function","name":"pause","inputs":[],"outputs":[],"stateMutability":"nonpayable"},{"type":"function","name":"paused","inputs":[],"outputs":[{"name":"","type":"bool","internalType":"bool"}],"stateMutability":"view"},{"type":"function","name":"pendingOwner","inputs":[],"outputs":[{"name":"","type":"address","internalType":"address"}],"stateMutability":"view"},{"type":"function","name":"placeBid","inputs":[{"name":"listingId","type":"uint256","internalType":"uint256"},{"name":"amount","type":"uint256","internalType":"uint256"}],"outputs":[],"stateMutability":"nonpayable"},{"type":"function","name":"playerNFT","inputs":[],"outputs":[{"name":"","type":"address","internalType":"contract SWOSPlayerNFT"}],"stateMutability":"view"},{"type":"function","name":"recallLoan","inputs":[{"name":"loanId","type":"uint256","internalType":"uint256"}],"outputs":[],"stateMutability":"nonpayable"},{"type":"function","name":"renounceOwnership","inputs":[],"outputs":[],"stateMutability":"nonpayable"},{"type":"function","name":"resolveListing","inputs":[{"name":"listingId","type":"uint256","internalType":"uint256"}],"outputs":[],"stateMutability":"nonpayable"},{"type":"function","name":"sensiToken","inputs":[],"outputs":[{"name":"","type":"address","internalType":"contract IERC20"}],"stateMutability":"view"},{"type":"function","name":"setTreasury","inputs":[{"name":"newTreasury","type":"address","internalType":"address"}],"outputs":[],"stateMutability":"nonpayable"},{"type":"function","name":"tokenToListing","inputs":[{"name":"","type":"uint256","internalType":"uint256"}],"outputs":[{"name":"","type":"uint256","internalType":"uint256"}],"stateMutability":"view"},{"type":"function","name":"tokenToLoan","inputs":[{"name":"","type":"uint256","internalType":"uint256"}],"outputs":[{"name":"","type":"uint256","internalType":"uint256"}],"stateMutability":"view"},{"type":"function","name":"transferOwnership","inputs":[{"name":"newOwner","type":"address","internalType":"address"}],"outputs":[],"stateMutability":"nonpayable"},{"type":"function","name":"treasury","inputs":[],"outputs":[{"name":"","type":"address","internalType":"address"}],"stateMutability":"view"},{"type":"function","name":"unpause","inputs":[],"outputs":[],"stateMutability":"nonpayable"},{"type":"event","name":"BidPlaced","inputs":[{"name":"listingId","type":"uint256","indexed":true,"internalType":"uint256"},{"name":"bidder","type":"address","indexed":true,"internalType":"address"},{"name":"amount","type":"uint256","indexed":false,"internalType":"uint256"}],"anonymous":false},{"type":"event","name":"ListingCancelled","inputs":[{"name":"listingId","type":"uint256","indexed":true,"internalType":"uint256"}],"anonymous":false},{"type":"event","name":"LoanCreated","inputs":[{"name":"loanId","type":"uint256","indexed":true,"internalType":"uint256"},{"name":"tokenId","type":"uint256","indexed":true,"internalType":"uint256"},{"name":"lender","type":"address","indexed":false,"internalType":"address"},{"name":"borrower","type":"address","indexed":false,"internalType":"address"},{"name":"recallDate","type":"uint256","indexed":false,"internalType":"uint256"}],"anonymous":false},{"type":"event","name":"LoanRecalled","inputs":[{"name":"loanId","type":"uint256","indexed":true,"internalType":"uint256"},{"name":"tokenId","type":"uint256","indexed":true,"internalType":"uint256"}],"anonymous":false},{"type":"event","name":"OwnershipTransferStarted","inputs":[{"name":"previousOwner","type":"address","indexed":true,"internalType":"address"},{"name":"newOwner","type":"address","indexed":true,"internalType":"address"}],"anonymous":false},{"type":"event","name":"OwnershipTransferred","inputs":[{"name":"previousOwner","type":"address","indexed":true,"internalType":"address"},{"name":"newOwner","type":"address","indexed":true,"internalType":"address"}],"anonymous":false},{"type":"event","name":"Paused","inputs":[{"name":"account","type":"address","indexed":false,"internalType":"address"}],"anonymous":false},{"type":"event","name":"PlayerListed","inputs":[{"name":"listingId","type":"uint256","indexed":true,"internalType":"uint256"},{"name":"tokenId","type":"uint256","indexed":true,"internalType":"uint256"},{"name":"minPrice","type":"uint256","indexed":false,"internalType":"uint256"},{"name":"releaseClause","type":"uint256","indexed":false,"internalType":"uint256"}],"anonymous":false},{"type":"event","name":"TransferCompleted","inputs":[{"name":"listingId","type":"uint256","indexed":true,"internalType":"uint256"},{"name":"tokenId","type":"uint256","indexed":true,"internalType":"uint256"},{"name":"from","type":"address","indexed":false,"internalType":"address"},{"name":"to","type":"address","indexed":false,"internalType":"address"},{"name":"price","type":"uint256","indexed":false,"internalType":"uint256"}],"anonymous":false},{"type":"event","name":"Unpaused","inputs":[{"name":"account","type":"address","indexed":false,"internalType":"address"}],"anonymous":false},{"type":"error","name":"EnforcedPause","inputs":[]},{"type":"error","name":"ExpectedPause","inputs":[]},{"type":"error","name":"OwnableInvalidOwner","inputs":[{"name":"owner","type":"address","internalType":"address"}]},{"type":"error","name":"OwnableUnauthorizedAccount","inputs":[{"name":"account","type":"address","internalType":"address"}]},{"type":"error","name":"ReentrancyGuardReentrantCall","inputs":[]}],"bytecode":{"object":"0x608060405234801561000f575f5ffd5b50604051611b5e380380611b5e83398101604081905261002e91610149565b338061005357604051631e4fbdf760e01b81525f600482015260240160405180910390fd5b61005c816100c3565b5060017f9b779b17422d0df92223018b32b4d1fa46e071723d6817e2486d003becc55f0055600280546001600160a01b039485166001600160a01b031991821617909155600380549385169382169390931790925560048054919093169116179055610189565b600180546001600160a01b03191690556100dc816100df565b50565b5f80546001600160a01b038381166001600160a01b0319831681178455604051919092169283917f8be0079c531659141344cd1fd0a4f28419497f9722a3daafe3b4186f6b6457e09190a35050565b80516001600160a01b0381168114610144575f5ffd5b919050565b5f5f5f6060848603121561015b575f5ffd5b6101648461012e565b92506101726020850161012e565b91506101806040850161012e565b90509250925092565b6119c8806101965f395ff3fe608060405234801561000f575f5ffd5b5060043610610187575f3560e01c80638da5cb5b116100d9578063e1ec3c6811610093578063e99628cb1161006e578063e99628cb1461042d578063ea7eaec614610440578063f0f442601461045f578063f2fde38b14610472575f5ffd5b8063e1ec3c6814610386578063e30c397814610412578063e7067c4914610423575f5ffd5b80638da5cb5b14610283578063a530d1c214610293578063aaccf1ec146102a6578063b88b773e146102af578063bf333f2c146102ce578063de74e57b146102d7575f5ffd5b806361d027b3116101445780637a0282801161011f5780637a0282801461023e5780638456cb591461025157806387c514591461025957806388850d5f14610270575f5ffd5b806361d027b31461021b578063715018a61461022e57806379ba509714610236575f5ffd5b80632829cec01461018b578063305a67a8146101a057806333e2f7cb146101b35780633f4ba83a146101e357806357c90de5146101eb5780635c975abb146101fe575b5f5ffd5b61019e6101993660046117a6565b610485565b005b61019e6101ae3660046117e0565b61081b565b6003546101c6906001600160a01b031681565b6040516001600160a01b0390911681526020015b60405180910390f35b61019e610999565b61019e6101f93660046117f7565b6109ab565b600154600160a01b900460ff1660405190151581526020016101da565b6004546101c6906001600160a01b031681565b61019e610c53565b61019e610c64565b61019e61024c3660046117e0565b610ca8565b61019e610e15565b61026260085481565b6040519081526020016101da565b6002546101c6906001600160a01b031681565b5f546001600160a01b03166101c6565b61019e6102a1366004611817565b610e25565b61026260055481565b6102626102bd3660046117e0565b600a6020525f908152604090205481565b6102626103e881565b6103396102e53660046117e0565b600660208190525f918252604090912080546001820154600283015460038401546004850154600586015495909601546001600160a01b03948516969395929491939291811690600160a01b900460ff1688565b604080516001600160a01b03998a16815260208101989098528701959095526060860193909352608085019190915260a084015290921660c082015290151560e0820152610100016101da565b6103d86103943660046117e0565b60096020525f90815260409020805460018201546002830154600384015460048501546005909501546001600160a01b039485169593909416939192909160ff1686565b604080516001600160a01b0397881681529690951660208701529385019290925260608401526080830152151560a082015260c0016101da565b6001546001600160a01b03166101c6565b6102626203f48081565b61019e61043b3660046117e0565b611117565b61026261044e3660046117e0565b60076020525f908152604090205481565b61019e61046d366004611840565b611279565b61019e610480366004611840565b6112a3565b61048d611313565b61049561132e565b6002546040516331a9108f60e11b81526004810186905233916001600160a01b031690636352211e90602401602060405180830381865afa1580156104dc573d5f5f3e3d5ffd5b505050506040513d601f19601f820116820180604052508101906105009190611862565b6001600160a01b0316146105475760405162461bcd60e51b81526020600482015260096024820152682737ba1037bbb732b960b91b60448201526064015b60405180910390fd5b5f848152600a6020526040902054156105935760405162461bcd60e51b815260206004820152600e60248201526d105b1c9958591e481b1bd85b995960921b604482015260640161053e565b5f84815260076020526040902054156105e05760405162461bcd60e51b815260206004820152600f60248201526e4c697374656420666f722073616c6560881b604482015260640161053e565b801561065c576003546040516323b872dd60e01b81526001600160a01b03909116906323b872dd9061061a9086903390869060040161187d565b6020604051808303815f875af1158015610636573d5f5f3e3d5ffd5b505050506040513d601f19601f8201168201806040525081019061065a91906118a1565b505b6002546040516323b872dd60e01b81526001600160a01b03909116906323b872dd906106909033908790899060040161187d565b5f604051808303815f87803b1580156106a7575f5ffd5b505af11580156106b9573d5f5f3e3d5ffd5b505060088054925090505f6106cd836118d4565b90915550506040805160c0810182523381526001600160a01b03851660208201529081018590526060810161070584620151806118ec565b61070f9042611909565b8152602080820184905260016040928301819052600880545f9081526009808552858220875181546001600160a01b03199081166001600160a01b03928316178355898801519683018054909116969091169590951790945586860151600285015560608701516003808601919091556080880151600486015560a0909701516005909401805460ff1916941515949094179093559054898252600a845284822081905580825291909252908290209092015490518692917fec926f063e0466751bf68c0a9b95fdf34abcbdc487c5cf1bcee4bf02c41d0e6f916107f791339189919061187d565b60405180910390a361081560015f5160206119735f395f51905f5255565b50505050565b5f81815260066020819052604090912090810154600160a01b900460ff166108555760405162461bcd60e51b815260040161053e9061191c565b80546001600160a01b0316331461089b5760405162461bcd60e51b815260206004820152600a6024820152692737ba1039b2b63632b960b11b604482015260640161053e565b60068101546001600160a01b0316156108e15760405162461bcd60e51b8152602060048201526008602482015267486173206269647360c01b604482015260640161053e565b600254815460018301546040516323b872dd60e01b81526001600160a01b03938416936323b872dd9361091d933093929091169160040161187d565b5f604051808303815f87803b158015610934575f5ffd5b505af1158015610946573d5f5f3e3d5ffd5b50505060068201805460ff60a01b191690555060018101545f908152600760205260408082208290555183917f411aee90354c51b1b04cd563fcab2617142a9d50da19232d888547c8a1b7fd8a91a25050565b6109a1611359565b6109a9611385565b565b6109b3611313565b6109bb61132e565b5f82815260066020819052604090912090810154600160a01b900460ff166109f55760405162461bcd60e51b815260040161053e9061191c565b8060040154421115610a335760405162461bcd60e51b8152602060048201526007602482015266115e1c1a5c995960ca1b604482015260640161053e565b8060020154821015610a775760405162461bcd60e51b815260206004820152600d60248201526c42656c6f77206d696e696d756d60981b604482015260640161053e565b80600501548211610ab85760405162461bcd60e51b815260206004820152600b60248201526a139bdd081a1a59da195cdd60aa1b604482015260640161053e565b60068101546001600160a01b031615610b4b576003546006820154600583015460405163a9059cbb60e01b81526001600160a01b039283166004820152602481019190915291169063a9059cbb906044016020604051808303815f875af1158015610b25573d5f5f3e3d5ffd5b505050506040513d601f19601f82011682018060405250810190610b4991906118a1565b505b6003546040516323b872dd60e01b81526001600160a01b03909116906323b872dd90610b7f9033903090879060040161187d565b6020604051808303815f875af1158015610b9b573d5f5f3e3d5ffd5b505050506040513d601f19601f82011682018060405250810190610bbf91906118a1565b50600581018290556006810180546001600160a01b0319163390811790915560405183815284907f0e54eff26401bf69b81b26f60bd85ef47f5d85275c1d268d84f68d6897431c479060200160405180910390a35f8160030154118015610c2a575080600301548210155b15610c3857610c38836113da565b50610c4f60015f5160206119735f395f51905f5255565b5050565b610c5b611359565b6109a95f61168e565b60015433906001600160a01b03168114610c9c5760405163118cdaa760e01b81526001600160a01b038216600482015260240161053e565b610ca58161168e565b50565b610cb0611313565b5f81815260066020819052604090912090810154600160a01b900460ff16610cea5760405162461bcd60e51b815260040161053e9061191c565b80600401544211610d2a5760405162461bcd60e51b815260206004820152600a60248201526929ba34b6361037b832b760b11b604482015260640161053e565b60068101546001600160a01b0316610df557600254815460018301546040516323b872dd60e01b81526001600160a01b03938416936323b872dd93610d78933093929091169160040161187d565b5f604051808303815f87803b158015610d8f575f5ffd5b505af1158015610da1573d5f5f3e3d5ffd5b50505060068201805460ff60a01b191690555060018101545f908152600760205260408082208290555183917f411aee90354c51b1b04cd563fcab2617142a9d50da19232d888547c8a1b7fd8a91a2610dfe565b610dfe826113da565b50610ca560015f5160206119735f395f51905f5255565b610e1d611359565b6109a96116a7565b610e2d61132e565b6002546040516331a9108f60e11b81526004810185905233916001600160a01b031690636352211e90602401602060405180830381865afa158015610e74573d5f5f3e3d5ffd5b505050506040513d601f19601f82011682018060405250810190610e989190611862565b6001600160a01b031614610eda5760405162461bcd60e51b81526020600482015260096024820152682737ba1037bbb732b960b91b604482015260640161053e565b5f8381526007602052604090205415610f265760405162461bcd60e51b815260206004820152600e60248201526d105b1c9958591e481b1a5cdd195960921b604482015260640161053e565b5f838152600a602052604090205415610f6b5760405162461bcd60e51b815260206004820152600760248201526627b7103637b0b760c91b604482015260640161053e565b6002546040516323b872dd60e01b81526001600160a01b03909116906323b872dd90610f9f9033903090889060040161187d565b5f604051808303815f87803b158015610fb6575f5ffd5b505af1158015610fc8573d5f5f3e3d5ffd5b505060058054925090505f610fdc836118d4565b9190505550604051806101000160405280336001600160a01b031681526020018481526020018381526020018281526020016203f4804261101d9190611909565b81525f60208083018290526040808401839052600160609485018190526005805485526006808552838620885181546001600160a01b039182166001600160a01b031990911617825589870151948201949094558885015160028201559688015160038801556080880151600488015560a08801518783015560c08801519601805460e0909801511515600160a01b026001600160a81b0319909816969092169590951795909517909455915486825260078352908390208190558251858152918201849052859290917fbf433b125f914c6d0447f64c61eb4a1b2239c1a0f2f006ef05b96c8b9f80eb9f910160405180910390a3505050565b61111f611313565b5f818152600960205260409020600581015460ff166111505760405162461bcd60e51b815260040161053e9061191c565b80546001600160a01b031633148061116c575080600301544210155b6111a95760405162461bcd60e51b815260206004820152600e60248201526d4e6f7420726563616c6c61626c6560901b604482015260640161053e565b6002805460018301548354928401546040516323b872dd60e01b81526001600160a01b03938416946323b872dd946111e99481169391169160040161187d565b5f604051808303815f87803b158015611200575f5ffd5b505af1158015611212573d5f5f3e3d5ffd5b50505060058201805460ff19169055506002810180545f908152600a60205260408082208290559154915184917ffc4596a4f38f5760f189e75dde5f150e5d566ff1d545ed1b171f977f706e6a9091a350610ca560015f5160206119735f395f51905f5255565b611281611359565b600480546001600160a01b0319166001600160a01b0392909216919091179055565b6112ab611359565b600180546001600160a01b0383166001600160a01b031990911681179091556112db5f546001600160a01b031690565b6001600160a01b03167f38d16b8cac22d99fc7c124b9cd0de2d3fa1faef420bfe791d8c362d765e2270060405160405180910390a350565b61131b6116ea565b60025f5160206119735f395f51905f5255565b600154600160a01b900460ff16156109a95760405163d93c066560e01b815260040160405180910390fd5b5f546001600160a01b031633146109a95760405163118cdaa760e01b815233600482015260240161053e565b61138d611719565b6001805460ff60a01b191690557f5db9ee0a495bf2e6ff9c91a7834c1ba4fdd244a5e8aa4e537bd38aeae4b073aa335b6040516001600160a01b03909116815260200160405180910390a1565b5f818152600660205260408120600581015490919061271090611400906103e8906118ec565b61140a9190611940565b90505f611418600283611940565b90505f611425828461195f565b90505f838560050154611438919061195f565b600354865460405163a9059cbb60e01b81526001600160a01b03918216600482015260248101849052929350169063a9059cbb906044016020604051808303815f875af115801561148b573d5f5f3e3d5ffd5b505050506040513d601f19601f820116820180604052508101906114af91906118a1565b506003546004805460405163a9059cbb60e01b81526001600160a01b0391821692810192909252602482018590529091169063a9059cbb906044016020604051808303815f875af1158015611506573d5f5f3e3d5ffd5b505050506040513d601f19601f8201168201806040525081019061152a91906118a1565b5060035460405163a9059cbb60e01b815261dead6004820152602481018590526001600160a01b039091169063a9059cbb906044016020604051808303815f875af115801561157b573d5f5f3e3d5ffd5b505050506040513d601f19601f8201168201806040525081019061159f91906118a1565b50600254600686015460018701546040516323b872dd60e01b81526001600160a01b03938416936323b872dd936115df933093929091169160040161187d565b5f604051808303815f87803b1580156115f6575f5ffd5b505af1158015611608573d5f5f3e3d5ffd5b5050505060068501805460ff60a01b191681556001860180545f90815260076020526040808220919091559054875492546005890154925191938a937f2ff8171b4b734a665cfba2b8fbb6c8b140b00cdd2d8616db36c9d50891b84a1a9361167e936001600160a01b039384169316919061187d565b60405180910390a3505050505050565b600180546001600160a01b0319169055610ca581611743565b6116af61132e565b6001805460ff60a01b1916600160a01b1790557f62e78cea01bee320cd4e420270b5ea74000d11b0c9f74754ebdbfc544b05a2586113bd3390565b5f5160206119735f395f51905f52546002036109a957604051633ee5aeb560e01b815260040160405180910390fd5b600154600160a01b900460ff166109a957604051638dfc202b60e01b815260040160405180910390fd5b5f80546001600160a01b038381166001600160a01b0319831681178455604051919092169283917f8be0079c531659141344cd1fd0a4f28419497f9722a3daafe3b4186f6b6457e09190a35050565b6001600160a01b0381168114610ca5575f5ffd5b5f5f5f5f608085870312156117b9575f5ffd5b8435935060208501356117cb81611792565b93969395505050506040820135916060013590565b5f602082840312156117f0575f5ffd5b5035919050565b5f5f60408385031215611808575f5ffd5b50508035926020909101359150565b5f5f5f60608486031215611829575f5ffd5b505081359360208301359350604090920135919050565b5f60208284031215611850575f5ffd5b813561185b81611792565b9392505050565b5f60208284031215611872575f5ffd5b815161185b81611792565b6001600160a01b039384168152919092166020820152604081019190915260600190565b5f602082840312156118b1575f5ffd5b8151801515811461185b575f5ffd5b634e487b7160e01b5f52601160045260245ffd5b5f600182016118e5576118e56118c0565b5060010190565b8082028115828204841417611903576119036118c0565b92915050565b80820180821115611903576119036118c0565b6020808252600a90820152694e6f742061637469766560b01b604082015260600190565b5f8261195a57634e487b7160e01b5f52601260045260245ffd5b500490565b81810381811115611903576119036118c056fe9b779b17422d0df92223018b32b4d1fa46e071723d6817e2486d003becc55f00a2646970667358221220d7f6708c6341aef1a76639a97cf7db5597725dbe4fbf841ce9a7ce8edd94125f64736f6c634300081c0033","linkReferences":{}},"methodIdentifiers":{"BID_WINDOW()":"e7067c49","FEE_BPS()":"bf333f2c","acceptOwnership()":"79ba5097","cancelListing(uint256)":"305a67a8","createLoan(uint256,address,uint256,uint256)":"2829cec0","listPlayer(uint256,uint256,uint256)":"a530d1c2","listings(uint256)":"de74e57b","loans(uint256)":"e1ec3c68","nextListingId()":"aaccf1ec","nextLoanId()":"87c51459","owner()":"8da5cb5b","pause()":"8456cb59","paused()":"5c975abb","pendingOwner()":"e30c3978","placeBid(uint256,uint256)":"57c90de5","playerNFT()":"88850d5f","recallLoan(uint256)":"e99628cb","renounceOwnership()":"715018a6","resolveListing(uint256)":"7a028280","sensiToken()":"33e2f7cb","setTreasury(address)":"f0f44260","tokenToListing(uint256)":"ea7eaec6","tokenToLoan(uint256)":"b88b773e","transferOwnership(address)":"f2fde38b","treasury()":"61d027b3","unpause()":"3f4ba83a"},"id":29}