{"abi":[{"type":"constructor","inputs":[{"name":"_oracle","type":"address","internalType":"address"}],"stateMutability":"nonpayable"},{"type":"function","name":"acceptOwnership","inputs":[],"outputs":[],"stateMutability":"nonpayable"},{"type":"function","name":"accumulatedWages","inputs":[{"name":"","type":"uint256","internalType":"uint256"}],"outputs":[{"name":"","type":"uint256","internalType":"uint256"}],"stateMutability":"view"},{"type":"function","name":"addWages","inputs":[{"name":"tokenId","type":"uint256","internalType":"uint256"},{"name":"amount","type":"uint256","internalType":"uint256"}],"outputs":[],"stateMutability":"nonpayable"},{"type":"function","name":"addWagesBatch","inputs":[{"name":"tokenIds","type":"uint256[]","internalType":"uint256[]"},{"name":"amounts","type":"uint256[]","internalType":"uint256[]"}],"outputs":[],"stateMutability":"nonpayable"},{"type":"function","name":"approve","inputs":[{"name":"to","type":"address","internalType":"address"},{"name":"tokenId","type":"uint256","internalType":"uint256"}],"outputs":[],"stateMutability":"nonpayable"},{"type":"function","name":"balanceOf","inputs":[{"name":"owner","type":"address","internalType":"address"}],"outputs":[{"name":"","type":"uint256","internalType":"uint256"}],"stateMutability":"view"},{"type":"function","name":"claimWages","inputs":[{"name":"tokenId","type":"uint256","internalType":"uint256"}],"outputs":[],"stateMutability":"nonpayable"},{"type":"function","name":"getApproved","inputs":[{"name":"tokenId","type":"uint256","internalType":"uint256"}],"outputs":[{"name":"","type":"address","internalType":"address"}],"stateMutability":"view"},{"type":"function","name":"isApprovedForAll","inputs":[{"name":"owner","type":"address","internalType":"address"},{"name":"operator","type":"address","internalType":"address"}],"outputs":[{"name":"","type":"bool","internalType":"bool"}],"stateMutability":"view"},{"type":"function","name":"mint","inputs":[{"name":"to","type":"address","internalType":"address"},{"name":"tokenId","type":"uint256","internalType":"uint256"}],"outputs":[],"stateMutability":"nonpayable"},{"type":"function","name":"mintBatch","inputs":[{"name":"to","type":"address","internalType":"address"},{"name":"tokenIds","type":"uint256[]","internalType":"uint256[]"}],"outputs":[],"stateMutability":"nonpayable"},{"type":"function","name":"name","inputs":[],"outputs":[{"name":"","type":"string","internalType":"string"}],"stateMutability":"view"},{"type":"function","name":"oracle","inputs":[],"outputs":[{"name":"","type":"address","internalType":"address"}],"stateMutability":"view"},{"type":"function","name":"owner","inputs":[],"outputs":[{"name":"","type":"address","internalType":"address"}],"stateMutability":"view"},{"type":"function","name":"ownerOf","inputs":[{"name":"tokenId","type":"uint256","internalType":"uint256"}],"outputs":[{"name":"","type":"address","internalType":"address"}],"stateMutability":"view"},{"type":"function","name":"pendingOwner","inputs":[],"outputs":[{"name":"","type":"address","internalType":"address"}],"stateMutability":"view"},{"type":"function","name":"renounceOwnership","inputs":[],"outputs":[],"stateMutability":"nonpayable"},{"type":"function","name":"safeTransferFrom","inputs":[{"name":"from","type":"address","internalType":"address"},{"name":"to","type":"address","internalType":"address"},{"name":"tokenId","type":"uint256","internalType":"uint256"}],"outputs":[],"stateMutability":"nonpayable"},{"type":"function","name":"safeTransferFrom","inputs":[{"name":"from","type":"address","internalType":"address"},{"name":"to","type":"address","internalType":"address"},{"name":"tokenId","type":"uint256","internalType":"uint256"},{"name":"data","type":"bytes","internalType":"bytes"}],"outputs":[],"stateMutability":"nonpayable"},{"type":"function","name":"sensiToken","inputs":[],"outputs":[{"name":"","type":"address","internalType":"contract IERC20Transfer"}],"stateMutability":"view"},{"type":"function","name":"setApprovalForAll","inputs":[{"name":"operator","type":"address","internalType":"address"},{"name":"approved","type":"bool","internalType":"bool"}],"outputs":[],"stateMutability":"nonpayable"},{"type":"function","name":"setOracle","inputs":[{"name":"_oracle","type":"address","internalType":"address"}],"outputs":[],"stateMutability":"nonpayable"},{"type":"function","name":"setSENSIToken","inputs":[{"name":"_sensiToken","type":"address","internalType":"address"}],"outputs":[],"stateMutability":"nonpayable"},{"type":"function","name":"supportsInterface","inputs":[{"name":"interfaceId","type":"bytes4","internalType":"bytes4"}],"outputs":[{"name":"","type":"bool","internalType":"bool"}],"stateMutability":"view"},{"type":"function","name":"symbol","inputs":[],"outputs":[{"name":"","type":"string","internalType":"string"}],"stateMutability":"view"},{"type":"function","name":"tokenURI","inputs":[{"name":"tokenId","type":"uint256","internalType":"uint256"}],"outputs":[{"name":"","type":"string","internalType":"string"}],"stateMutability":"view"},{"type":"function","name":"totalMinted","inputs":[],"outputs":[{"name":"","type":"uint256","internalType":"uint256"}],"stateMutability":"view"},{"type":"function","name":"transferFrom","inputs":[{"name":"from","type":"address","internalType":"address"},{"name":"to","type":"address","internalType":"address"},{"name":"tokenId","type":"uint256","internalType":"uint256"}],"outputs":[],"stateMutability":"nonpayable"},{"type":"function","name":"transferOwnership","inputs":[{"name":"newOwner","type":"address","internalType":"address"}],"outputs":[],"stateMutability":"nonpayable"},{"type":"function","name":"updateMetadata","inputs":[{"name":"tokenId","type":"uint256","internalType":"uint256"},{"name":"newUri","type":"string","internalType":"string"}],"outputs":[],"stateMutability":"nonpayable"},{"type":"event","name":"Approval","inputs":[{"name":"owner","type":"address","indexed":true,"internalType":"address"},{"name":"approved","type":"address","indexed":true,"internalType":"address"},{"name":"tokenId","type":"uint256","indexed":true,"internalType":"uint256"}],"anonymous":false},{"type":"event","name":"ApprovalForAll","inputs":[{"name":"owner","type":"address","indexed":true,"internalType":"address"},{"name":"operator","type":"address","indexed":true,"internalType":"address"},{"name":"approved","type":"bool","indexed":false,"internalType":"bool"}],"anonymous":false},{"type":"event","name":"MetadataUpdated","inputs":[{"name":"tokenId","type":"uint256","indexed":true,"internalType":"uint256"},{"name":"newUri","type":"string","indexed":false,"internalType":"string"}],"anonymous":false},{"type":"event","name":"OracleUpdated","inputs":[{"name":"oldOracle","type":"address","indexed":true,"internalType":"address"},{"name":"newOracle","type":"address","indexed":true,"internalType":"address"}],"anonymous":false},{"type":"event","name":"OwnershipTransferStarted","inputs":[{"name":"previousOwner","type":"address","indexed":true,"internalType":"address"},{"name":"newOwner","type":"address","indexed":true,"internalType":"address"}],"anonymous":false},{"type":"event","name":"OwnershipTransferred","inputs":[{"name":"previousOwner","type":"address","indexed":true,"internalType":"address"},{"name":"newOwner","type":"address","indexed":true,"internalType":"address"}],"anonymous":false},{"type":"event","name":"SENSITokenUpdated","inputs":[{"name":"oldToken","type":"address","indexed":true,"internalType":"address"},{"name":"newToken","type":"address","indexed":true,"internalType":"address"}],"anonymous":false},{"type":"event","name":"Transfer","inputs":[{"name":"from","type":"address","indexed":true,"internalType":"address"},{"name":"to","type":"address","indexed":true,"internalType":"address"},{"name":"tokenId","type":"uint256","indexed":true,"internalType":"uint256"}],"anonymous":false},{"type":"event","name":"WagesAdded","inputs":[{"name":"tokenId","type":"uint256","indexed":true,"internalType":"uint256"},{"name":"amount","type":"uint256","indexed":false,"internalType":"uint256"}],"anonymous":false},{"type":"event","name":"WagesClaimed","inputs":[{"name":"tokenId","type":"uint256","indexed":true,"internalType":"uint256"},{"name":"owner","type":"address","indexed":true,"internalType":"address"},{"name":"amount","type":"uint256","indexed":false,"internalType":"uint256"}],"anonymous":false},{"type":"error","name":"ERC721IncorrectOwner","inputs":[{"name":"sender","type":"address","internalType":"address"},{"name":"tokenId","type":"uint256","internalType":"uint256"},{"name":"owner","type":"address","internalType":"address"}]},{"type":"error","name":"ERC721InsufficientApproval","inputs":[{"name":"operator","type":"address","internalType":"address"},{"name":"tokenId","type":"uint256","internalType":"uint256"}]},{"type":"error","name":"ERC721InvalidApprover","inputs":[{"name":"approver","type":"address","internalType":"address"}]},{"type":"error","name":"ERC721InvalidOperator","inputs":[{"name":"operator","type":"address","internalType":"address"}]},{"type":"error","name":"ERC721InvalidOwner","inputs":[{"name":"owner","type":"address","internalType":"address"}]},{"type":"error","name":"ERC721InvalidReceiver","inputs":[{"name":"receiver","type":"address","internalType":"address"}]},{"type":"error","name":"ERC721InvalidSender","inputs":[{"name":"sender","type":"address","internalType":"address"}]},{"type":"error","name":"ERC721NonexistentToken","inputs":[{"name":"tokenId","type":"uint256","internalType":"uint256"}]},{"type":"error","name":"OwnableInvalidOwner","inputs":[{"name":"owner","type":"address","internalType":"address"}]},{"type":"error","name":"OwnableUnauthorizedAccount","inputs":[{"name":"account","type":"address","internalType":"address"}]}],"bytecode":{"object":"0x608060405234801561000f575f5ffd5b506040516121b33803806121b383398101604081905261002e916101bb565b336040518060400160405280600e81526020016d29aba7a99a191810283630bcb2b960911b8152506040518060400160405280600481526020016353574f5360e01b815250815f90816100819190610280565b50600161008e8282610280565b5050506001600160a01b0381166100bf57604051631e4fbdf760e01b81525f60048201526024015b60405180910390fd5b6100c88161014e565b506001600160a01b0381166101295760405162461bcd60e51b815260206004820152602160248201527f506c617965724e46543a206f7261636c65206973207a65726f206164647265736044820152607360f81b60648201526084016100b6565b600880546001600160a01b0319166001600160a01b039290921691909117905561033a565b600780546001600160a01b03191690556101678161016a565b50565b600680546001600160a01b038381166001600160a01b0319831681179093556040519116919082907f8be0079c531659141344cd1fd0a4f28419497f9722a3daafe3b4186f6b6457e0905f90a35050565b5f602082840312156101cb575f5ffd5b81516001600160a01b03811681146101e1575f5ffd5b9392505050565b634e487b7160e01b5f52604160045260245ffd5b600181811c9082168061021057607f821691505b60208210810361022e57634e487b7160e01b5f52602260045260245ffd5b50919050565b601f82111561027b57805f5260205f20601f840160051c810160208510156102595750805b601f840160051c820191505b81811015610278575f8155600101610265565b50505b505050565b81516001600160401b03811115610299576102996101e8565b6102ad816102a784546101fc565b84610234565b6020601f8211600181146102df575f83156102c85750848201515b5f19600385901b1c1916600184901b178455610278565b5f84815260208120601f198516915b8281101561030e57878501518255602094850194600190920191016102ee565b508482101561032b57868401515f19600387901b60f8161c191681555b50505050600190811b01905550565b611e6c806103475f395ff3fe608060405234801561000f575f5ffd5b50600436106101d1575f3560e01c806375ceb341116100fe5780639e24ae4b1161009e578063c87b56dd1161006e578063c87b56dd146103e1578063e30c3978146103f4578063e985e9c514610405578063f2fde38b14610418575f5ffd5b80639e24ae4b1461039f578063a22cb465146103b2578063a2309ff8146103c5578063b88d4fde146103ce575f5ffd5b80637adbf973116100d95780637adbf973146103605780637dc0d1d0146103735780638da5cb5b1461038657806395d89b4114610397575f5ffd5b806375ceb3411461033257806377e551461461034557806379ba509714610358575f5ffd5b806340c10f19116101745780635aaa8964116101445780635aaa8964146102d75780636352211e1461030457806370a0823114610317578063715018a61461032a575f5ffd5b806340c10f191461028b57806342842e0e1461029e5780634b353a7a146102b157806353c8388e146102c4575f5ffd5b8063095ea7b3116101af578063095ea7b31461023d57806323b872dd1461025257806330698ac41461026557806333e2f7cb14610278575f5ffd5b806301ffc9a7146101d557806306fdde03146101fd578063081812fc14610212575b5f5ffd5b6101e86101e33660046117c2565b61042b565b60405190151581526020015b60405180910390f35b61020561047c565b6040516101f49190611812565b610225610220366004611824565b61050b565b6040516001600160a01b0390911681526020016101f4565b61025061024b366004611856565b610532565b005b61025061026036600461187e565b610541565b6102506102733660046118b8565b6105cf565b600954610225906001600160a01b031681565b610250610299366004611856565b6106ce565b6102506102ac36600461187e565b61074e565b6102506102bf366004611920565b61076d565b6102506102d2366004611a17565b6109c0565b6102f66102e5366004611824565b600b6020525f908152604090205481565b6040519081526020016101f4565b610225610312366004611824565b610aac565b6102f6610325366004611a6e565b610ab6565b610250610afb565b610250610340366004611a87565b610b0e565b610250610353366004611a6e565b610c56565b610250610d05565b61025061036e366004611a6e565b610d49565b600854610225906001600160a01b031681565b6006546001600160a01b0316610225565b610205610e02565b6102506103ad366004611824565b610e11565b6102506103c0366004611ae3565b61102b565b6102f6600c5481565b6102506103dc366004611b18565b611036565b6102056103ef366004611824565b61104e565b6007546001600160a01b0316610225565b6101e8610413366004611b8f565b61111f565b610250610426366004611a6e565b61114c565b5f6001600160e01b031982166380ac58cd60e01b148061045b57506001600160e01b03198216635b5e139f60e01b145b8061047657506301ffc9a760e01b6001600160e01b03198316145b92915050565b60605f805461048a90611bc0565b80601f01602080910402602001604051908101604052809291908181526020018280546104b690611bc0565b80156105015780601f106104d857610100808354040283529160200191610501565b820191905f5260205f20905b8154815290600101906020018083116104e457829003601f168201915b5050505050905090565b5f610515826111bd565b505f828152600460205260409020546001600160a01b0316610476565b61053d8282336111f5565b5050565b6001600160a01b03821661056f57604051633250574960e11b81525f60048201526024015b60405180910390fd5b5f61057b838333611202565b9050836001600160a01b0316816001600160a01b0316146105c9576040516364283d7b60e01b81526001600160a01b0380861660048301526024820184905282166044820152606401610566565b50505050565b6008546001600160a01b031633146105f95760405162461bcd60e51b815260040161056690611bf8565b5f828152600260205260409020546001600160a01b031661062c5760405162461bcd60e51b815260040161056690611c3b565b5f81116106725760405162461bcd60e51b8152602060048201526014602482015273506c617965724e46543a207a65726f207761676560601b6044820152606401610566565b5f828152600b60205260408120805483929061068f908490611c86565b909155505060405181815282907fa455885a35f61197854f6f8f7e119d2e71e2cf5507b3124fd638bb35ed53135e906020015b60405180910390a25050565b6106d66112f4565b6001600160a01b03821661072c5760405162461bcd60e51b815260206004820152601f60248201527f506c617965724e46543a206d696e7420746f207a65726f2061646472657373006044820152606401610566565b6107368282611321565b600c8054905f61074583611c99565b91905055505050565b61076883838360405180602001604052805f815250611036565b505050565b6008546001600160a01b031633146107975760405162461bcd60e51b815260040161056690611bf8565b8281146107e65760405162461bcd60e51b815260206004820152601a60248201527f506c617965724e46543a206c656e677468206d69736d617463680000000000006044820152606401610566565b8261082c5760405162461bcd60e51b8152602060048201526016602482015275506c617965724e46543a20656d70747920617272617960501b6044820152606401610566565b5f5b838110156109b9575f61086d86868481811061084c5761084c611cb1565b905060200201355f908152600260205260409020546001600160a01b031690565b6001600160a01b0316036108935760405162461bcd60e51b815260040161056690611c3b565b5f8383838181106108a6576108a6611cb1565b90506020020135116108f15760405162461bcd60e51b8152602060048201526014602482015273506c617965724e46543a207a65726f207761676560601b6044820152606401610566565b82828281811061090357610903611cb1565b90506020020135600b5f87878581811061091f5761091f611cb1565b9050602002013581526020019081526020015f205f8282546109419190611c86565b90915550859050848281811061095957610959611cb1565b905060200201357fa455885a35f61197854f6f8f7e119d2e71e2cf5507b3124fd638bb35ed53135e84848481811061099357610993611cb1565b905060200201356040516109a991815260200190565b60405180910390a260010161082e565b5050505050565b6008546001600160a01b031633146109ea5760405162461bcd60e51b815260040161056690611bf8565b5f828152600260205260409020546001600160a01b0316610a1d5760405162461bcd60e51b815260040161056690611c3b565b5f815111610a645760405162461bcd60e51b8152602060048201526014602482015273506c617965724e46543a20656d7074792055524960601b6044820152606401610566565b5f828152600a60205260409020610a7b8282611d09565b50817f459157ba24c7ab9878b165ef465fa6ae2ab42bcd8445f576be378768b0c47309826040516106c29190611812565b5f610476826111bd565b5f6001600160a01b038216610ae0576040516322718ad960e21b81525f6004820152602401610566565b506001600160a01b03165f9081526003602052604090205490565b610b036112f4565b610b0c5f61133a565b565b610b166112f4565b6001600160a01b038316610b6c5760405162461bcd60e51b815260206004820152601f60248201527f506c617965724e46543a206d696e7420746f207a65726f2061646472657373006044820152606401610566565b80610bb25760405162461bcd60e51b8152602060048201526016602482015275506c617965724e46543a20656d70747920617272617960501b6044820152606401610566565b6064811115610c035760405162461bcd60e51b815260206004820152601a60248201527f506c617965724e46543a20626174636820746f6f206c617267650000000000006044820152606401610566565b5f5b81811015610c3757610c2f84848484818110610c2357610c23611cb1565b90506020020135611321565b600101610c05565b5081819050600c5f828254610c4c9190611c86565b9091555050505050565b610c5e6112f4565b6001600160a01b038116610cb45760405162461bcd60e51b815260206004820181905260248201527f506c617965724e46543a20746f6b656e206973207a65726f20616464726573736044820152606401610566565b600980546001600160a01b038381166001600160a01b0319831681179093556040519116919082907fe2665c300bf6309d7dbce080a31afcaaf507baaf30fb59cbf277653f0eb1380e905f90a35050565b60075433906001600160a01b03168114610d3d5760405163118cdaa760e01b81526001600160a01b0382166004820152602401610566565b610d468161133a565b50565b610d516112f4565b6001600160a01b038116610db15760405162461bcd60e51b815260206004820152602160248201527f506c617965724e46543a206f7261636c65206973207a65726f206164647265736044820152607360f81b6064820152608401610566565b600880546001600160a01b038381166001600160a01b0319831681179093556040519116919082907f078c3b417dadf69374a59793b829c52001247130433427049317bde56607b1b7905f90a35050565b60606001805461048a90611bc0565b33610e1b82610aac565b6001600160a01b031614610e715760405162461bcd60e51b815260206004820152601a60248201527f506c617965724e46543a206e6f7420746f6b656e206f776e65720000000000006044820152606401610566565b5f818152600b602052604090205480610ecc5760405162461bcd60e51b815260206004820152601c60248201527f506c617965724e46543a206e6f20776167657320746f20636c61696d000000006044820152606401610566565b5f828152600b60205260408120556009546001600160a01b0316610f325760405162461bcd60e51b815260206004820152601e60248201527f506c617965724e46543a2053454e534920746f6b656e206e6f742073657400006044820152606401610566565b60095460405163a9059cbb60e01b8152336004820152602481018390526001600160a01b039091169063a9059cbb906044016020604051808303815f875af1158015610f80573d5f5f3e3d5ffd5b505050506040513d601f19601f82011682018060405250810190610fa49190611dc4565b610ff05760405162461bcd60e51b815260206004820181905260248201527f506c617965724e46543a2053454e5349207472616e73666572206661696c65646044820152606401610566565b604051818152339083907fadf119773d5cac2cd1bd764af497abd3a9d3d7d4cd2d00b7ca168c02830466569060200160405180910390a35050565b61053d338383611353565b611041848484610541565b6105c933858585856113f1565b5f818152600260205260409020546060906001600160a01b03166110845760405162461bcd60e51b815260040161056690611c3b565b5f828152600a60205260409020805461109c90611bc0565b80601f01602080910402602001604051908101604052809291908181526020018280546110c890611bc0565b80156111135780601f106110ea57610100808354040283529160200191611113565b820191905f5260205f20905b8154815290600101906020018083116110f657829003601f168201915b50505050509050919050565b6001600160a01b039182165f90815260056020908152604080832093909416825291909152205460ff1690565b6111546112f4565b600780546001600160a01b0383166001600160a01b031990911681179091556111856006546001600160a01b031690565b6001600160a01b03167f38d16b8cac22d99fc7c124b9cd0de2d3fa1faef420bfe791d8c362d765e2270060405160405180910390a350565b5f818152600260205260408120546001600160a01b03168061047657604051637e27328960e01b815260048101849052602401610566565b6107688383836001611518565b5f828152600260205260408120546001600160a01b039081169083161561122e5761122e81848661161c565b6001600160a01b03811615611268576112495f855f5f611518565b6001600160a01b0381165f90815260036020526040902080545f190190555b6001600160a01b03851615611296576001600160a01b0385165f908152600360205260409020805460010190555b5f8481526002602052604080822080546001600160a01b0319166001600160a01b0389811691821790925591518793918516917fddf252ad1be2c89b69c2b068fc378daa952ba7f163c4a11628f55a4df523b3ef91a4949350505050565b6006546001600160a01b03163314610b0c5760405163118cdaa760e01b8152336004820152602401610566565b61053d828260405180602001604052805f815250611680565b600780546001600160a01b0319169055610d4681611697565b6001600160a01b03821661138557604051630b61174360e31b81526001600160a01b0383166004820152602401610566565b6001600160a01b038381165f81815260056020908152604080832094871680845294825291829020805460ff191686151590811790915591519182527f17307eab39ab6107e8899845ad3d59bd9653f200f220920489ca2b5937696c31910160405180910390a3505050565b6001600160a01b0383163b156109b957604051630a85bd0160e11b81526001600160a01b0384169063150b7a0290611433908890889087908790600401611ddf565b6020604051808303815f875af192505050801561146d575060408051601f3d908101601f1916820190925261146a91810190611e1b565b60015b6114d4573d80801561149a576040519150601f19603f3d011682016040523d82523d5f602084013e61149f565b606091505b5080515f036114cc57604051633250574960e11b81526001600160a01b0385166004820152602401610566565b805160208201fd5b6001600160e01b03198116630a85bd0160e11b1461151057604051633250574960e11b81526001600160a01b0385166004820152602401610566565b505050505050565b808061152c57506001600160a01b03821615155b156115ed575f61153b846111bd565b90506001600160a01b038316158015906115675750826001600160a01b0316816001600160a01b031614155b801561157a5750611578818461111f565b155b156115a35760405163a9fbf51f60e01b81526001600160a01b0384166004820152602401610566565b81156115eb5783856001600160a01b0316826001600160a01b03167f8c5be1e5ebec7d5bd14f71427d1e84f3dd0314c0f7b2291e5b200ac8c7c3b92560405160405180910390a45b505b50505f90815260046020526040902080546001600160a01b0319166001600160a01b0392909216919091179055565b6116278383836116e8565b610768576001600160a01b03831661165557604051637e27328960e01b815260048101829052602401610566565b60405163177e802f60e01b81526001600160a01b038316600482015260248101829052604401610566565b61168a838361174c565b610768335f8585856113f1565b600680546001600160a01b038381166001600160a01b0319831681179093556040519116919082907f8be0079c531659141344cd1fd0a4f28419497f9722a3daafe3b4186f6b6457e0905f90a35050565b5f6001600160a01b038316158015906117445750826001600160a01b0316846001600160a01b031614806117215750611721848461111f565b8061174457505f828152600460205260409020546001600160a01b038481169116145b949350505050565b6001600160a01b03821661177557604051633250574960e11b81525f6004820152602401610566565b5f61178183835f611202565b90506001600160a01b03811615610768576040516339e3563760e11b81525f6004820152602401610566565b6001600160e01b031981168114610d46575f5ffd5b5f602082840312156117d2575f5ffd5b81356117dd816117ad565b9392505050565b5f81518084528060208401602086015e5f602082860101526020601f19601f83011685010191505092915050565b602081525f6117dd60208301846117e4565b5f60208284031215611834575f5ffd5b5035919050565b80356001600160a01b0381168114611851575f5ffd5b919050565b5f5f60408385031215611867575f5ffd5b6118708361183b565b946020939093013593505050565b5f5f5f60608486031215611890575f5ffd5b6118998461183b565b92506118a76020850161183b565b929592945050506040919091013590565b5f5f604083850312156118c9575f5ffd5b50508035926020909101359150565b5f5f83601f8401126118e8575f5ffd5b50813567ffffffffffffffff8111156118ff575f5ffd5b6020830191508360208260051b8501011115611919575f5ffd5b9250929050565b5f5f5f5f60408587031215611933575f5ffd5b843567ffffffffffffffff811115611949575f5ffd5b611955878288016118d8565b909550935050602085013567ffffffffffffffff811115611974575f5ffd5b611980878288016118d8565b95989497509550505050565b634e487b7160e01b5f52604160045260245ffd5b5f5f67ffffffffffffffff8411156119ba576119ba61198c565b50604051601f19601f85018116603f0116810181811067ffffffffffffffff821117156119e9576119e961198c565b604052838152905080828401851015611a00575f5ffd5b838360208301375f60208583010152509392505050565b5f5f60408385031215611a28575f5ffd5b82359150602083013567ffffffffffffffff811115611a45575f5ffd5b8301601f81018513611a55575f5ffd5b611a64858235602084016119a0565b9150509250929050565b5f60208284031215611a7e575f5ffd5b6117dd8261183b565b5f5f5f60408486031215611a99575f5ffd5b611aa28461183b565b9250602084013567ffffffffffffffff811115611abd575f5ffd5b611ac9868287016118d8565b9497909650939450505050565b8015158114610d46575f5ffd5b5f5f60408385031215611af4575f5ffd5b611afd8361183b565b91506020830135611b0d81611ad6565b809150509250929050565b5f5f5f5f60808587031215611b2b575f5ffd5b611b348561183b565b9350611b426020860161183b565b925060408501359150606085013567ffffffffffffffff811115611b64575f5ffd5b8501601f81018713611b74575f5ffd5b611b83878235602084016119a0565b91505092959194509250565b5f5f60408385031215611ba0575f5ffd5b611ba98361183b565b9150611bb76020840161183b565b90509250929050565b600181811c90821680611bd457607f821691505b602082108103611bf257634e487b7160e01b5f52602260045260245ffd5b50919050565b60208082526023908201527f506c617965724e46543a2063616c6c6572206973206e6f7420746865206f7261604082015262636c6560e81b606082015260800190565b6020808252601c908201527f506c617965724e46543a206e6f6e6578697374656e7420746f6b656e00000000604082015260600190565b634e487b7160e01b5f52601160045260245ffd5b8082018082111561047657610476611c72565b5f60018201611caa57611caa611c72565b5060010190565b634e487b7160e01b5f52603260045260245ffd5b601f82111561076857805f5260205f20601f840160051c81016020851015611cea5750805b601f840160051c820191505b818110156109b9575f8155600101611cf6565b815167ffffffffffffffff811115611d2357611d2361198c565b611d3781611d318454611bc0565b84611cc5565b6020601f821160018114611d69575f8315611d525750848201515b5f19600385901b1c1916600184901b1784556109b9565b5f84815260208120601f198516915b82811015611d985787850151825560209485019460019092019101611d78565b5084821015611db557868401515f19600387901b60f8161c191681555b50505050600190811b01905550565b5f60208284031215611dd4575f5ffd5b81516117dd81611ad6565b6001600160a01b03858116825284166020820152604081018390526080606082018190525f90611e11908301846117e4565b9695505050505050565b5f60208284031215611e2b575f5ffd5b81516117dd816117ad56fea26469706673582212207b412c7f7be3bd9afdaaf2530fd06a5695cdf2eea0f3618a8d8d7b4ce0cb6d0d64736f6c634300081c0033","linkReferences":{}},"methodIdentifiers":{"acceptOwnership()":"79ba5097","accumulatedWages(uint256)":"5aaa8964","addWages(uint256,uint256)":"30698ac4","addWagesBatch(uint256[],uint256[])":"4b353a7a","approve(address,uint256)":"095ea7b3","balanceOf(address)":"70a08231","claimWages(uint256)":"9e24ae4b","getApproved(uint256)":"081812fc","isApprovedForAll(address,address)":"e985e9c5","mint(address,uint256)":"40c10f19","mintBatch(address,uint256[])":"75ceb341","name()":"06fdde03","oracle()":"7dc0d1d0","owner()":"8da5cb5b","ownerOf(uint256)":"6352211e","pendingOwner()":"e30c3978","renounceOwnership()":"715018a6","safeTransferFrom(address,address,uint256)":"42842e0e","safeTransferFrom(address,address,uint256,bytes)":"b88d4fde","sensiToken()":"33e2f7cb","setApprovalForAll(address,bool)":"a22cb465","setOracle(address)":"7adbf973","setSENSIToken(address)":"77e55146","supportsInterface(bytes4)":"01ffc9a7","symbol()":"95d89b41","tokenURI(uint256)":"c87b56dd","totalMinted()":"a2309ff8","transferFrom(address,address,uint256)":"23b872dd","transferOwnership(address)":"f2fde38b","updateMetadata(uint256,string)":"53c8388e"},"id":1}