{"abi":[{"type":"constructor","inputs":[{"name":"_sensiToken","type":"address","internalType":"address"}],"stateMutability":"nonpayable"},{"type":"function","name":"acceptOwnership","inputs":[],"outputs":[],"stateMutability":"nonpayable"},{"type":"function","name":"distributeChampionBonus","inputs":[{"name":"seasonId","type":"bytes32","internalType":"bytes32"},{"name":"champion","type":"address","internalType":"address"}],"outputs":[],"stateMutability":"nonpayable"},{"type":"function","name":"distributeCleanSheetBonus","inputs":[{"name":"seasonId","type":"bytes32","internalType":"bytes32"},{"name":"keeperManager","type":"address","internalType":"address"},{"name":"cleanSheets","type":"uint256","internalType":"uint256"}],"outputs":[],"stateMutability":"nonpayable"},{"type":"function","name":"distributeTopScorerBonus","inputs":[{"name":"seasonId","type":"bytes32","internalType":"bytes32"},{"name":"topScorer","type":"address","internalType":"address"}],"outputs":[],"stateMutability":"nonpayable"},{"type":"function","name":"distributedBonuses","inputs":[{"name":"","type":"bytes32","internalType":"bytes32"}],"outputs":[{"name":"","type":"bool","internalType":"bool"}],"stateMutability":"view"},{"type":"function","name":"owner","inputs":[],"outputs":[{"name":"","type":"address","internalType":"address"}],"stateMutability":"view"},{"type":"function","name":"pendingOwner","inputs":[],"outputs":[{"name":"","type":"address","internalType":"address"}],"stateMutability":"view"},{"type":"function","name":"renounceOwnership","inputs":[],"outputs":[],"stateMutability":"nonpayable"},{"type":"function","name":"sensiToken","inputs":[],"outputs":[{"name":"","type":"address","internalType":"contract ISENSIToken"}],"stateMutability":"view"},{"type":"function","name":"setSENSIToken","inputs":[{"name":"_sensiToken","type":"address","internalType":"address"}],"outputs":[],"stateMutability":"nonpayable"},{"type":"function","name":"settleMatch","inputs":[{"name":"matchId","type":"bytes32","internalType":"bytes32"},{"name":"manager1","type":"address","internalType":"address"},{"name":"manager2","type":"address","internalType":"address"},{"name":"isDraw","type":"bool","internalType":"bool"},{"name":"manager1Won","type":"bool","internalType":"bool"}],"outputs":[],"stateMutability":"nonpayable"},{"type":"function","name":"settledMatches","inputs":[{"name":"","type":"bytes32","internalType":"bytes32"}],"outputs":[{"name":"","type":"bool","internalType":"bool"}],"stateMutability":"view"},{"type":"function","name":"transferOwnership","inputs":[{"name":"newOwner","type":"address","internalType":"address"}],"outputs":[],"stateMutability":"nonpayable"},{"type":"event","name":"MatchSettled","inputs":[{"name":"matchId","type":"bytes32","indexed":true,"internalType":"bytes32"},{"name":"winner","type":"address","indexed":true,"internalType":"address"},{"name":"loser","type":"address","indexed":true,"internalType":"address"},{"name":"isDraw","type":"bool","indexed":false,"internalType":"bool"},{"name":"winnerReward","type":"uint256","indexed":false,"internalType":"uint256"},{"name":"loserReward","type":"uint256","indexed":false,"internalType":"uint256"}],"anonymous":false},{"type":"event","name":"OwnershipTransferStarted","inputs":[{"name":"previousOwner","type":"address","indexed":true,"internalType":"address"},{"name":"newOwner","type":"address","indexed":true,"internalType":"address"}],"anonymous":false},{"type":"event","name":"OwnershipTransferred","inputs":[{"name":"previousOwner","type":"address","indexed":true,"internalType":"address"},{"name":"newOwner","type":"address","indexed":true,"internalType":"address"}],"anonymous":false},{"type":"event","name":"SeasonBonusDistributed","inputs":[{"name":"bonusType","type":"string","indexed":true,"internalType":"string"},{"name":"recipient","type":"address","indexed":true,"internalType":"address"},{"name":"amount","type":"uint256","indexed":false,"internalType":"uint256"}],"anonymous":false},{"type":"error","name":"OwnableInvalidOwner","inputs":[{"name":"owner","type":"address","internalType":"address"}]},{"type":"error","name":"OwnableUnauthorizedAccount","inputs":[{"name":"account","type":"address","internalType":"address"}]}],"bytecode":{"object":"0x608060405234801561000f575f5ffd5b506040516110fd3803806110fd83398101604081905261002e91610150565b338061005457604051631e4fbdf760e01b81525f60048201526024015b60405180910390fd5b61005d816100e5565b506001600160a01b0381166100c05760405162461bcd60e51b8152602060048201526024808201527f4c6561677565526577617264733a20746f6b656e206973207a65726f206164646044820152637265737360e01b606482015260840161004b565b600280546001600160a01b0319166001600160a01b039290921691909117905561017d565b600180546001600160a01b03191690556100fe81610101565b50565b5f80546001600160a01b038381166001600160a01b0319831681178455604051919092169283917f8be0079c531659141344cd1fd0a4f28419497f9722a3daafe3b4186f6b6457e09190a35050565b5f60208284031215610160575f5ffd5b81516001600160a01b0381168114610176575f5ffd5b9392505050565b610f738061018a5f395ff3fe608060405234801561000f575f5ffd5b50600436106100cb575f3560e01c806379ba509711610088578063e30c397811610063578063e30c3978146101ae578063e906908a146101bf578063f0f10ec1146101d2578063f2fde38b146101e5575f5ffd5b806379ba5097146101835780637e5558111461018b5780638da5cb5b1461019e575f5ffd5b806333e2f7cb146100cf57806334c92ecf146100ff5780634508124d146101315780636d08180614610153578063715018a61461016857806377e5514614610170575b5f5ffd5b6002546100e2906001600160a01b031681565b6040516001600160a01b0390911681526020015b60405180910390f35b61012161010d366004610d67565b60046020525f908152604090205460ff1681565b60405190151581526020016100f6565b61012161013f366004610d67565b60036020525f908152604090205460ff1681565b610166610161366004610d99565b6101f8565b005b61016661045f565b61016661017e366004610dcb565b610472565b6101666104fe565b610166610199366004610dfa565b610542565b5f546001600160a01b03166100e2565b6001546001600160a01b03166100e2565b6101666101cd366004610e54565b6108e0565b6101666101e0366004610e54565b610ac3565b6101666101f3366004610dcb565b610c68565b610200610cd8565b5f838360405160200161024292919091825260601b6bffffffffffffffffffffffff191660208201526918db19585b94da19595d60b21b6034820152603e0190565b60408051601f1981840301815291815281516020928301205f818152600490935291205490915060ff16156102925760405162461bcd60e51b815260040161028990610e7e565b60405180910390fd5b6001600160a01b0383166102b85760405162461bcd60e51b815260040161028990610ec6565b5f82116103075760405162461bcd60e51b815260206004820181905260248201527f4c6561677565526577617264733a207a65726f20636c65616e207368656574736044820152606401610289565b5f818152600460208181526040808420805460ff1916600117905560025481516381eb64cf60e01b8152915187946001600160a01b03909216936381eb64cf9380840193919291908290030181865afa158015610366573d5f5f3e3d5ffd5b505050506040513d601f19601f8201168201806040525081019061038a9190610efd565b6103949190610f14565b6002546040516335106f4960e11b81526001600160a01b03878116600483015260248201849052929350911690636a20de92906044015f604051808303815f87803b1580156103e1575f5ffd5b505af11580156103f3573d5f5f3e3d5ffd5b50505050836001600160a01b031660405161041e906918db19585b94da19595d60b21b8152600a0190565b604051908190038120838252907f1548f1b9f004255a8248a3d818d0327295ca026af8e9c824dbf2e709e041812c9060200160405180910390a35050505050565b610467610cd8565b6104705f610d04565b565b61047a610cd8565b6001600160a01b0381166104dc5760405162461bcd60e51b8152602060048201526024808201527f4c6561677565526577617264733a20746f6b656e206973207a65726f206164646044820152637265737360e01b6064820152608401610289565b600280546001600160a01b0319166001600160a01b0392909216919091179055565b60015433906001600160a01b031681146105365760405163118cdaa760e01b81526001600160a01b0382166004820152602401610289565b61053f81610d04565b50565b61054a610cd8565b5f8581526003602052604090205460ff16156105b45760405162461bcd60e51b8152602060048201526024808201527f4c6561677565526577617264733a206d6174636820616c7265616479207365746044820152631d1b195960e21b6064820152608401610289565b6001600160a01b038416158015906105d457506001600160a01b03831615155b6105f05760405162461bcd60e51b815260040161028990610ec6565b5f858152600360205260409020805460ff1916600117905581156107965760025460408051631b17795760e11b815290515f926001600160a01b03169163362ef2ae9160048083019260209291908290030181865afa158015610655573d5f5f3e3d5ffd5b505050506040513d601f19601f820116820180604052508101906106799190610efd565b6002546040516335106f4960e11b81526001600160a01b03888116600483015260248201849052929350911690636a20de92906044015f604051808303815f87803b1580156106c6575f5ffd5b505af11580156106d8573d5f5f3e3d5ffd5b50506002546040516335106f4960e11b81526001600160a01b038881166004830152602482018690529091169250636a20de9291506044015f604051808303815f87803b158015610727575f5ffd5b505af1158015610739573d5f5f3e3d5ffd5b50506040805160018152602081018590529081018490526001600160a01b0380881693508816915088907f336bdd6fc84b0098d995022f9d64a48fe2f9d13e51ed0b67efd3ed7fd836b7039060600160405180910390a4506108d9565b600254604080516356a438f560e01b815290515f926001600160a01b0316916356a438f59160048083019260209291908290030181865afa1580156107dd573d5f5f3e3d5ffd5b505050506040513d601f19601f820116820180604052508101906108019190610efd565b90505f8261080f5784610811565b855b90505f8361081f5786610821565b855b6002546040516335106f4960e11b81526001600160a01b03858116600483015260248201879052929350911690636a20de92906044015f604051808303815f87803b15801561086e575f5ffd5b505af1158015610880573d5f5f3e3d5ffd5b5050604080515f808252602082018890528183015290516001600160a01b038581169450861692508b917f336bdd6fc84b0098d995022f9d64a48fe2f9d13e51ed0b67efd3ed7fd836b703919081900360600190a45050505b5050505050565b6108e8610cd8565b5f8260405160200161090d9181526731b430b6b834b7b760c11b602082015260280190565b60408051601f1981840301815291815281516020928301205f818152600490935291205490915060ff16156109545760405162461bcd60e51b815260040161028990610e7e565b6001600160a01b03821661097a5760405162461bcd60e51b815260040161028990610ec6565b5f818152600460208181526040808420805460ff1916600117905560025481516301d84ae360e31b815291516001600160a01b0390911693630ec257189383820193909291908290030181865afa1580156109d7573d5f5f3e3d5ffd5b505050506040513d601f19601f820116820180604052508101906109fb9190610efd565b6002546040516335106f4960e11b81526001600160a01b03868116600483015260248201849052929350911690636a20de92906044015f604051808303815f87803b158015610a48575f5ffd5b505af1158015610a5a573d5f5f3e3d5ffd5b50505050826001600160a01b0316604051610a83906731b430b6b834b7b760c11b815260080190565b604051908190038120838252907f1548f1b9f004255a8248a3d818d0327295ca026af8e9c824dbf2e709e041812c9060200160405180910390a350505050565b610acb610cd8565b5f82604051602001610af1918152683a37b829b1b7b932b960b91b602082015260290190565b60408051601f1981840301815291815281516020928301205f818152600490935291205490915060ff1615610b385760405162461bcd60e51b815260040161028990610e7e565b6001600160a01b038216610b5e5760405162461bcd60e51b815260040161028990610ec6565b5f818152600460208181526040808420805460ff191660011790556002548151632f7b769360e01b815291516001600160a01b0390911693632f7b76939383820193909291908290030181865afa158015610bbb573d5f5f3e3d5ffd5b505050506040513d601f19601f82011682018060405250810190610bdf9190610efd565b6002546040516335106f4960e11b81526001600160a01b03868116600483015260248201849052929350911690636a20de92906044015f604051808303815f87803b158015610c2c575f5ffd5b505af1158015610c3e573d5f5f3e3d5ffd5b50505050826001600160a01b0316604051610a8390683a37b829b1b7b932b960b91b815260090190565b610c70610cd8565b600180546001600160a01b0383166001600160a01b03199091168117909155610ca05f546001600160a01b031690565b6001600160a01b03167f38d16b8cac22d99fc7c124b9cd0de2d3fa1faef420bfe791d8c362d765e2270060405160405180910390a350565b5f546001600160a01b031633146104705760405163118cdaa760e01b8152336004820152602401610289565b600180546001600160a01b031916905561053f815f80546001600160a01b038381166001600160a01b0319831681178455604051919092169283917f8be0079c531659141344cd1fd0a4f28419497f9722a3daafe3b4186f6b6457e09190a35050565b5f60208284031215610d77575f5ffd5b5035919050565b80356001600160a01b0381168114610d94575f5ffd5b919050565b5f5f5f60608486031215610dab575f5ffd5b83359250610dbb60208501610d7e565b9150604084013590509250925092565b5f60208284031215610ddb575f5ffd5b610de482610d7e565b9392505050565b80358015158114610d94575f5ffd5b5f5f5f5f5f60a08688031215610e0e575f5ffd5b85359450610e1e60208701610d7e565b9350610e2c60408701610d7e565b9250610e3a60608701610deb565b9150610e4860808701610deb565b90509295509295909350565b5f5f60408385031215610e65575f5ffd5b82359150610e7560208401610d7e565b90509250929050565b60208082526028908201527f4c6561677565526577617264733a20626f6e757320616c7265616479206469736040820152671d1c9a589d5d195960c21b606082015260800190565b6020808252601b908201527f4c6561677565526577617264733a207a65726f20616464726573730000000000604082015260600190565b5f60208284031215610f0d575f5ffd5b5051919050565b8082028115828204841417610f3757634e487b7160e01b5f52601160045260245ffd5b9291505056fea26469706673582212209ff746574a2f39419852fcbed7f1bfaa45ffaf8f71a695a52bf2505b964fe02e64736f6c634300081c0033","linkReferences":{}},"methodIdentifiers":{"acceptOwnership()":"79ba5097","distributeChampionBonus(bytes32,address)":"e906908a","distributeCleanSheetBonus(bytes32,address,uint256)":"6d081806","distributeTopScorerBonus(bytes32,address)":"f0f10ec1","distributedBonuses(bytes32)":"34c92ecf","owner()":"8da5cb5b","pendingOwner()":"e30c3978","renounceOwnership()":"715018a6","sensiToken()":"33e2f7cb","setSENSIToken(address)":"77e55146","settleMatch(bytes32,address,address,bool,bool)":"7e555811","settledMatches(bytes32)":"4508124d","transferOwnership(address)":"f2fde38b"},"id":50}