{"abi":[{"type":"constructor","inputs":[{"name":"_treasury","type":"address","internalType":"address"}],"stateMutability":"nonpayable"},{"type":"function","name":"CLEAN_SHEET_BONUS","inputs":[],"outputs":[{"name":"","type":"uint256","internalType":"uint256"}],"stateMutability":"view"},{"type":"function","name":"GENESIS_SUPPLY","inputs":[],"outputs":[{"name":"","type":"uint256","internalType":"uint256"}],"stateMutability":"view"},{"type":"function","name":"LEAGUE_WINNER_BONUS","inputs":[],"outputs":[{"name":"","type":"uint256","internalType":"uint256"}],"stateMutability":"view"},{"type":"function","name":"REWARD_PER_DRAW","inputs":[],"outputs":[{"name":"","type":"uint256","internalType":"uint256"}],"stateMutability":"view"},{"type":"function","name":"REWARD_PER_WIN","inputs":[],"outputs":[{"name":"","type":"uint256","internalType":"uint256"}],"stateMutability":"view"},{"type":"function","name":"TOP_SCORER_BONUS","inputs":[],"outputs":[{"name":"","type":"uint256","internalType":"uint256"}],"stateMutability":"view"},{"type":"function","name":"acceptOwnership","inputs":[],"outputs":[],"stateMutability":"nonpayable"},{"type":"function","name":"allowance","inputs":[{"name":"owner","type":"address","internalType":"address"},{"name":"spender","type":"address","internalType":"address"}],"outputs":[{"name":"","type":"uint256","internalType":"uint256"}],"stateMutability":"view"},{"type":"function","name":"approve","inputs":[{"name":"spender","type":"address","internalType":"address"},{"name":"value","type":"uint256","internalType":"uint256"}],"outputs":[{"name":"","type":"bool","internalType":"bool"}],"stateMutability":"nonpayable"},{"type":"function","name":"balanceOf","inputs":[{"name":"account","type":"address","internalType":"address"}],"outputs":[{"name":"","type":"uint256","internalType":"uint256"}],"stateMutability":"view"},{"type":"function","name":"burn","inputs":[{"name":"value","type":"uint256","internalType":"uint256"}],"outputs":[],"stateMutability":"nonpayable"},{"type":"function","name":"burnFrom","inputs":[{"name":"account","type":"address","internalType":"address"},{"name":"value","type":"uint256","internalType":"uint256"}],"outputs":[],"stateMutability":"nonpayable"},{"type":"function","name":"decimals","inputs":[],"outputs":[{"name":"","type":"uint8","internalType":"uint8"}],"stateMutability":"view"},{"type":"function","name":"distributeWage","inputs":[{"name":"nftOwner","type":"address","internalType":"address"},{"name":"totalWage","type":"uint256","internalType":"uint256"}],"outputs":[],"stateMutability":"nonpayable"},{"type":"function","name":"distributeWages","inputs":[{"name":"nftOwner","type":"address","internalType":"address"},{"name":"totalWage","type":"uint256","internalType":"uint256"}],"outputs":[],"stateMutability":"nonpayable"},{"type":"function","name":"mint","inputs":[{"name":"to","type":"address","internalType":"address"},{"name":"amount","type":"uint256","internalType":"uint256"}],"outputs":[],"stateMutability":"nonpayable"},{"type":"function","name":"mintRewards","inputs":[{"name":"to","type":"address","internalType":"address"},{"name":"amount","type":"uint256","internalType":"uint256"}],"outputs":[],"stateMutability":"nonpayable"},{"type":"function","name":"name","inputs":[],"outputs":[{"name":"","type":"string","internalType":"string"}],"stateMutability":"view"},{"type":"function","name":"owner","inputs":[],"outputs":[{"name":"","type":"address","internalType":"address"}],"stateMutability":"view"},{"type":"function","name":"pendingOwner","inputs":[],"outputs":[{"name":"","type":"address","internalType":"address"}],"stateMutability":"view"},{"type":"function","name":"renounceOwnership","inputs":[],"outputs":[],"stateMutability":"nonpayable"},{"type":"function","name":"setTreasury","inputs":[{"name":"_treasury","type":"address","internalType":"address"}],"outputs":[],"stateMutability":"nonpayable"},{"type":"function","name":"symbol","inputs":[],"outputs":[{"name":"","type":"string","internalType":"string"}],"stateMutability":"view"},{"type":"function","name":"totalSupply","inputs":[],"outputs":[{"name":"","type":"uint256","internalType":"uint256"}],"stateMutability":"view"},{"type":"function","name":"transfer","inputs":[{"name":"to","type":"address","internalType":"address"},{"name":"value","type":"uint256","internalType":"uint256"}],"outputs":[{"name":"","type":"bool","internalType":"bool"}],"stateMutability":"nonpayable"},{"type":"function","name":"transferFrom","inputs":[{"name":"from","type":"address","internalType":"address"},{"name":"to","type":"address","internalType":"address"},{"name":"value","type":"uint256","internalType":"uint256"}],"outputs":[{"name":"","type":"bool","internalType":"bool"}],"stateMutability":"nonpayable"},{"type":"function","name":"transferOwnership","inputs":[{"name":"newOwner","type":"address","internalType":"address"}],"outputs":[],"stateMutability":"nonpayable"},{"type":"function","name":"treasury","inputs":[],"outputs":[{"name":"","type":"address","internalType":"address"}],"stateMutability":"view"},{"type":"event","name":"Approval","inputs":[{"name":"owner","type":"address","indexed":true,"internalType":"address"},{"name":"spender","type":"address","indexed":true,"internalType":"address"},{"name":"value","type":"uint256","indexed":false,"internalType":"uint256"}],"anonymous":false},{"type":"event","name":"OwnershipTransferStarted","inputs":[{"name":"previousOwner","type":"address","indexed":true,"internalType":"address"},{"name":"newOwner","type":"address","indexed":true,"internalType":"address"}],"anonymous":false},{"type":"event","name":"OwnershipTransferred","inputs":[{"name":"previousOwner","type":"address","indexed":true,"internalType":"address"},{"name":"newOwner","type":"address","indexed":true,"internalType":"address"}],"anonymous":false},{"type":"event","name":"RewardsMinted","inputs":[{"name":"to","type":"address","indexed":true,"internalType":"address"},{"name":"amount","type":"uint256","indexed":false,"internalType":"uint256"},{"name":"reason","type":"string","indexed":false,"internalType":"string"}],"anonymous":false},{"type":"event","name":"Transfer","inputs":[{"name":"from","type":"address","indexed":true,"internalType":"address"},{"name":"to","type":"address","indexed":true,"internalType":"address"},{"name":"value","type":"uint256","indexed":false,"internalType":"uint256"}],"anonymous":false},{"type":"event","name":"TreasuryUpdated","inputs":[{"name":"oldTreasury","type":"address","indexed":true,"internalType":"address"},{"name":"newTreasury","type":"address","indexed":true,"internalType":"address"}],"anonymous":false},{"type":"error","name":"ERC20InsufficientAllowance","inputs":[{"name":"spender","type":"address","internalType":"address"},{"name":"allowance","type":"uint256","internalType":"uint256"},{"name":"needed","type":"uint256","internalType":"uint256"}]},{"type":"error","name":"ERC20InsufficientBalance","inputs":[{"name":"sender","type":"address","internalType":"address"},{"name":"balance","type":"uint256","internalType":"uint256"},{"name":"needed","type":"uint256","internalType":"uint256"}]},{"type":"error","name":"ERC20InvalidApprover","inputs":[{"name":"approver","type":"address","internalType":"address"}]},{"type":"error","name":"ERC20InvalidReceiver","inputs":[{"name":"receiver","type":"address","internalType":"address"}]},{"type":"error","name":"ERC20InvalidSender","inputs":[{"name":"sender","type":"address","internalType":"address"}]},{"type":"error","name":"ERC20InvalidSpender","inputs":[{"name":"spender","type":"address","internalType":"address"}]},{"type":"error","name":"OwnableInvalidOwner","inputs":[{"name":"owner","type":"address","internalType":"address"}]},{"type":"error","name":"OwnableUnauthorizedAccount","inputs":[{"name":"account","type":"address","internalType":"address"}]}],"bytecode":{"object":"0x608060405234801561000f575f5ffd5b5060405161132338038061132383398101604081905261002e9161032f565b336040518060400160405280600e81526020016d29b2b739b4b13632902a37b5b2b760911b8152506040518060400160405280600581526020016453454e534960d81b815250816003908161008391906103f4565b50600461009082826103f4565b5050506001600160a01b0381166100c157604051631e4fbdf760e01b81525f60048201526024015b60405180910390fd5b6100ca81610164565b506001600160a01b03811661012d5760405162461bcd60e51b8152602060048201526024808201527f53454e5349546f6b656e3a207472656173757279206973207a65726f206164646044820152637265737360e01b60648201526084016100b8565b600780546001600160a01b0319166001600160a01b03831617905561015e336b033b2e3c9fd0803ce8000000610180565b506104d3565b600680546001600160a01b031916905561017d816101b8565b50565b6001600160a01b0382166101a95760405163ec442f0560e01b81525f60048201526024016100b8565b6101b45f8383610209565b5050565b600580546001600160a01b038381166001600160a01b0319831681179093556040519116919082907f8be0079c531659141344cd1fd0a4f28419497f9722a3daafe3b4186f6b6457e0905f90a35050565b6001600160a01b038316610233578060025f82825461022891906104ae565b909155506102a39050565b6001600160a01b0383165f90815260208190526040902054818110156102855760405163391434e360e21b81526001600160a01b038516600482015260248101829052604481018390526064016100b8565b6001600160a01b0384165f9081526020819052604090209082900390555b6001600160a01b0382166102bf576002805482900390556102dd565b6001600160a01b0382165f9081526020819052604090208054820190555b816001600160a01b0316836001600160a01b03167fddf252ad1be2c89b69c2b068fc378daa952ba7f163c4a11628f55a4df523b3ef8360405161032291815260200190565b60405180910390a3505050565b5f6020828403121561033f575f5ffd5b81516001600160a01b0381168114610355575f5ffd5b9392505050565b634e487b7160e01b5f52604160045260245ffd5b600181811c9082168061038457607f821691505b6020821081036103a257634e487b7160e01b5f52602260045260245ffd5b50919050565b601f8211156103ef57805f5260205f20601f840160051c810160208510156103cd5750805b601f840160051c820191505b818110156103ec575f81556001016103d9565b50505b505050565b81516001600160401b0381111561040d5761040d61035c565b6104218161041b8454610370565b846103a8565b6020601f821160018114610453575f831561043c5750848201515b5f19600385901b1c1916600184901b1784556103ec565b5f84815260208120601f198516915b828110156104825787850151825560209485019460019092019101610462565b508482101561049f57868401515f19600387901b60f8161c191681555b50505050600190811b01905550565b808201808211156104cd57634e487b7160e01b5f52601160045260245ffd5b92915050565b610e43806104e05f395ff3fe608060405234801561000f575f5ffd5b50600436106101bb575f3560e01c80636a20de92116100f357806395d89b4111610093578063dd62ed3e1161006e578063dd62ed3e1461037a578063e30c3978146103b2578063f0f44260146103c3578063f2fde38b146103d6575f5ffd5b806395d89b411461034c57806399ec676514610354578063a9059cbb14610367575f5ffd5b806379ba5097116100ce57806379ba50971461031057806379cc67901461031857806381eb64cf1461032b5780638da5cb5b1461033b575f5ffd5b80636a20de921461027f57806370a08231146102e0578063715018a614610308575f5ffd5b8063313ce5671161015e57806340c10f191161013957806340c10f191461027f57806342966c681461029257806356a438f5146102a557806361d027b3146102b5575f5ffd5b8063313ce56714610260578063362ef2ae1461026f5780633e19180c1461021f575f5ffd5b8063140b621611610199578063140b62161461021f57806318160ddd1461023457806323b872dd1461023c5780632f7b76931461024f575f5ffd5b806306fdde03146101bf578063095ea7b3146101dd5780630ec2571814610200575b5f5ffd5b6101c76103e9565b6040516101d49190610c4b565b60405180910390f35b6101f06101eb366004610c9b565b610479565b60405190151581526020016101d4565b61021169152d02c7e14af680000081565b6040519081526020016101d4565b61023261022d366004610c9b565b610492565b005b600254610211565b6101f061024a366004610cc3565b6105cd565b61021169021e19e0c9bab240000081565b604051601281526020016101d4565b6102116802b5e3af16b188000081565b61023261028d366004610c9b565b6105f0565b6102326102a0366004610cfd565b6106ab565b61021168056bc75e2d6310000081565b6007546102c8906001600160a01b031681565b6040516001600160a01b0390911681526020016101d4565b6102116102ee366004610d14565b6001600160a01b03165f9081526020819052604090205490565b6102326106b8565b6102326106cb565b610232610326366004610c9b565b61070c565b610211681b1ae4d6e2ef50000081565b6005546001600160a01b03166102c8565b6101c7610721565b6102116b033b2e3c9fd0803ce800000081565b6101f0610375366004610c9b565b610730565b610211610388366004610d34565b6001600160a01b039182165f90815260016020908152604080832093909416825291909152205490565b6006546001600160a01b03166102c8565b6102326103d1366004610d14565b61073d565b6102326103e4366004610d14565b6107f8565b6060600380546103f890610d65565b80601f016020809104026020016040519081016040528092919081815260200182805461042490610d65565b801561046f5780601f106104465761010080835404028352916020019161046f565b820191905f5260205f20905b81548152906001019060200180831161045257829003601f168201915b5050505050905090565b5f33610486818585610869565b60019150505b92915050565b61049a61087b565b6001600160a01b0382166104ff5760405162461bcd60e51b815260206004820152602160248201527f53454e5349546f6b656e3a206f776e6572206973207a65726f206164647265736044820152607360f81b60648201526084015b60405180910390fd5b5f81116105465760405162461bcd60e51b815260206004820152601560248201527453454e5349546f6b656e3a207a65726f207761676560581b60448201526064016104f6565b5f606461055483605a610db1565b61055e9190610dc8565b90505f606461056e846005610db1565b6105789190610dc8565b90505f816105868486610de7565b6105909190610de7565b905061059c85846108a8565b6007546105b2906001600160a01b0316826108a8565b6105bc30836108a8565b6105c630836108dc565b5050505050565b5f336105da858285610910565b6105e585858561098c565b506001949350505050565b6105f861087b565b6001600160a01b03821661064e5760405162461bcd60e51b815260206004820181905260248201527f53454e5349546f6b656e3a206d696e7420746f207a65726f206164647265737360448201526064016104f6565b5f811161069d5760405162461bcd60e51b815260206004820152601760248201527f53454e5349546f6b656e3a207a65726f20616d6f756e7400000000000000000060448201526064016104f6565b6106a782826108a8565b5050565b6106b533826108dc565b50565b6106c061087b565b6106c95f6109e9565b565b60065433906001600160a01b031681146107035760405163118cdaa760e01b81526001600160a01b03821660048201526024016104f6565b6106b5816109e9565b610717823383610910565b6106a782826108dc565b6060600480546103f890610d65565b5f3361048681858561098c565b61074561087b565b6001600160a01b0381166107a75760405162461bcd60e51b8152602060048201526024808201527f53454e5349546f6b656e3a207472656173757279206973207a65726f206164646044820152637265737360e01b60648201526084016104f6565b600780546001600160a01b038381166001600160a01b0319831681179093556040519116919082907f4ab5be82436d353e61ca18726e984e561f5c1cc7c6d38b29d2553c790434705a905f90a35050565b61080061087b565b600680546001600160a01b0383166001600160a01b031990911681179091556108316005546001600160a01b031690565b6001600160a01b03167f38d16b8cac22d99fc7c124b9cd0de2d3fa1faef420bfe791d8c362d765e2270060405160405180910390a350565b6108768383836001610a02565b505050565b6005546001600160a01b031633146106c95760405163118cdaa760e01b81523360048201526024016104f6565b6001600160a01b0382166108d15760405163ec442f0560e01b81525f60048201526024016104f6565b6106a75f8383610ad4565b6001600160a01b03821661090557604051634b637e8f60e11b81525f60048201526024016104f6565b6106a7825f83610ad4565b6001600160a01b038381165f908152600160209081526040808320938616835292905220545f19811015610986578181101561097857604051637dc7a0d960e11b81526001600160a01b038416600482015260248101829052604481018390526064016104f6565b61098684848484035f610a02565b50505050565b6001600160a01b0383166109b557604051634b637e8f60e11b81525f60048201526024016104f6565b6001600160a01b0382166109de5760405163ec442f0560e01b81525f60048201526024016104f6565b610876838383610ad4565b600680546001600160a01b03191690556106b581610bfa565b6001600160a01b038416610a2b5760405163e602df0560e01b81525f60048201526024016104f6565b6001600160a01b038316610a5457604051634a1406b160e11b81525f60048201526024016104f6565b6001600160a01b038085165f908152600160209081526040808320938716835292905220829055801561098657826001600160a01b0316846001600160a01b03167f8c5be1e5ebec7d5bd14f71427d1e84f3dd0314c0f7b2291e5b200ac8c7c3b92584604051610ac691815260200190565b60405180910390a350505050565b6001600160a01b038316610afe578060025f828254610af39190610dfa565b90915550610b6e9050565b6001600160a01b0383165f9081526020819052604090205481811015610b505760405163391434e360e21b81526001600160a01b038516600482015260248101829052604481018390526064016104f6565b6001600160a01b0384165f9081526020819052604090209082900390555b6001600160a01b038216610b8a57600280548290039055610ba8565b6001600160a01b0382165f9081526020819052604090208054820190555b816001600160a01b0316836001600160a01b03167fddf252ad1be2c89b69c2b068fc378daa952ba7f163c4a11628f55a4df523b3ef83604051610bed91815260200190565b60405180910390a3505050565b600580546001600160a01b038381166001600160a01b0319831681179093556040519116919082907f8be0079c531659141344cd1fd0a4f28419497f9722a3daafe3b4186f6b6457e0905f90a35050565b602081525f82518060208401528060208501604085015e5f604082850101526040601f19601f83011684010191505092915050565b80356001600160a01b0381168114610c96575f5ffd5b919050565b5f5f60408385031215610cac575f5ffd5b610cb583610c80565b946020939093013593505050565b5f5f5f60608486031215610cd5575f5ffd5b610cde84610c80565b9250610cec60208501610c80565b929592945050506040919091013590565b5f60208284031215610d0d575f5ffd5b5035919050565b5f60208284031215610d24575f5ffd5b610d2d82610c80565b9392505050565b5f5f60408385031215610d45575f5ffd5b610d4e83610c80565b9150610d5c60208401610c80565b90509250929050565b600181811c90821680610d7957607f821691505b602082108103610d9757634e487b7160e01b5f52602260045260245ffd5b50919050565b634e487b7160e01b5f52601160045260245ffd5b808202811582820484141761048c5761048c610d9d565b5f82610de257634e487b7160e01b5f52601260045260245ffd5b500490565b8181038181111561048c5761048c610d9d565b8082018082111561048c5761048c610d9d56fea2646970667358221220198751b5a94ff3d779545fa801ce224353a2653e8eecf9a91697a6c0942d771764736f6c634300081c0033","linkReferences":{}},"methodIdentifiers":{"CLEAN_SHEET_BONUS()":"81eb64cf","GENESIS_SUPPLY()":"99ec6765","LEAGUE_WINNER_BONUS()":"0ec25718","REWARD_PER_DRAW()":"362ef2ae","REWARD_PER_WIN()":"56a438f5","TOP_SCORER_BONUS()":"2f7b7693","acceptOwnership()":"79ba5097","allowance(address,address)":"dd62ed3e","approve(address,uint256)":"095ea7b3","balanceOf(address)":"70a08231","burn(uint256)":"42966c68","burnFrom(address,uint256)":"79cc6790","decimals()":"313ce567","distributeWage(address,uint256)":"3e19180c","distributeWages(address,uint256)":"140b6216","mint(address,uint256)":"40c10f19","mintRewards(address,uint256)":"6a20de92","name()":"06fdde03","owner()":"8da5cb5b","pendingOwner()":"e30c3978","renounceOwnership()":"715018a6","setTreasury(address)":"f0f44260","symbol()":"95d89b41","totalSupply()":"18160ddd","transfer(address,uint256)":"a9059cbb","transferFrom(address,address,uint256)":"23b872dd","transferOwnership(address)":"f2fde38b","treasury()":"61d027b3"},"id":52}