{"abi":[{"type":"constructor","inputs":[{"name":"_treasury","type":"address","internalType":"address"}],"stateMutability":"nonpayable"},{"type":"function","name":"CLEAN_SHEET_BONUS","inputs":[],"outputs":[{"name":"","type":"uint256","internalType":"uint256"}],"stateMutability":"view"},{"type":"function","name":"INITIAL_SUPPLY","inputs":[],"outputs":[{"name":"","type":"uint256","internalType":"uint256"}],"stateMutability":"view"},{"type":"function","name":"LEAGUE_WINNER_BONUS","inputs":[],"outputs":[{"name":"","type":"uint256","internalType":"uint256"}],"stateMutability":"view"},{"type":"function","name":"TOP_SCORER_BONUS","inputs":[],"outputs":[{"name":"","type":"uint256","internalType":"uint256"}],"stateMutability":"view"},{"type":"function","name":"acceptOwnership","inputs":[],"outputs":[],"stateMutability":"nonpayable"},{"type":"function","name":"allowance","inputs":[{"name":"owner","type":"address","internalType":"address"},{"name":"spender","type":"address","internalType":"address"}],"outputs":[{"name":"","type":"uint256","internalType":"uint256"}],"stateMutability":"view"},{"type":"function","name":"approve","inputs":[{"name":"spender","type":"address","internalType":"address"},{"name":"value","type":"uint256","internalType":"uint256"}],"outputs":[{"name":"","type":"bool","internalType":"bool"}],"stateMutability":"nonpayable"},{"type":"function","name":"balanceOf","inputs":[{"name":"account","type":"address","internalType":"address"}],"outputs":[{"name":"","type":"uint256","internalType":"uint256"}],"stateMutability":"view"},{"type":"function","name":"batchDistributeWages","inputs":[{"name":"recipients","type":"address[]","internalType":"address[]"},{"name":"amounts","type":"uint256[]","internalType":"uint256[]"}],"outputs":[],"stateMutability":"nonpayable"},{"type":"function","name":"burn","inputs":[{"name":"value","type":"uint256","internalType":"uint256"}],"outputs":[],"stateMutability":"nonpayable"},{"type":"function","name":"burnFrom","inputs":[{"name":"account","type":"address","internalType":"address"},{"name":"value","type":"uint256","internalType":"uint256"}],"outputs":[],"stateMutability":"nonpayable"},{"type":"function","name":"decimals","inputs":[],"outputs":[{"name":"","type":"uint8","internalType":"uint8"}],"stateMutability":"view"},{"type":"function","name":"distributeWages","inputs":[{"name":"recipient","type":"address","internalType":"address"},{"name":"grossAmount","type":"uint256","internalType":"uint256"}],"outputs":[],"stateMutability":"nonpayable"},{"type":"function","name":"mint","inputs":[{"name":"to","type":"address","internalType":"address"},{"name":"amount","type":"uint256","internalType":"uint256"}],"outputs":[],"stateMutability":"nonpayable"},{"type":"function","name":"minters","inputs":[{"name":"","type":"address","internalType":"address"}],"outputs":[{"name":"","type":"bool","internalType":"bool"}],"stateMutability":"view"},{"type":"function","name":"name","inputs":[],"outputs":[{"name":"","type":"string","internalType":"string"}],"stateMutability":"view"},{"type":"function","name":"owner","inputs":[],"outputs":[{"name":"","type":"address","internalType":"address"}],"stateMutability":"view"},{"type":"function","name":"pause","inputs":[],"outputs":[],"stateMutability":"nonpayable"},{"type":"function","name":"paused","inputs":[],"outputs":[{"name":"","type":"bool","internalType":"bool"}],"stateMutability":"view"},{"type":"function","name":"pendingOwner","inputs":[],"outputs":[{"name":"","type":"address","internalType":"address"}],"stateMutability":"view"},{"type":"function","name":"renounceOwnership","inputs":[],"outputs":[],"stateMutability":"nonpayable"},{"type":"function","name":"setMinter","inputs":[{"name":"minter","type":"address","internalType":"address"},{"name":"allowed","type":"bool","internalType":"bool"}],"outputs":[],"stateMutability":"nonpayable"},{"type":"function","name":"setTreasury","inputs":[{"name":"newTreasury","type":"address","internalType":"address"}],"outputs":[],"stateMutability":"nonpayable"},{"type":"function","name":"symbol","inputs":[],"outputs":[{"name":"","type":"string","internalType":"string"}],"stateMutability":"view"},{"type":"function","name":"totalSupply","inputs":[],"outputs":[{"name":"","type":"uint256","internalType":"uint256"}],"stateMutability":"view"},{"type":"function","name":"transfer","inputs":[{"name":"to","type":"address","internalType":"address"},{"name":"value","type":"uint256","internalType":"uint256"}],"outputs":[{"name":"","type":"bool","internalType":"bool"}],"stateMutability":"nonpayable"},{"type":"function","name":"transferFrom","inputs":[{"name":"from","type":"address","internalType":"address"},{"name":"to","type":"address","internalType":"address"},{"name":"value","type":"uint256","internalType":"uint256"}],"outputs":[{"name":"","type":"bool","internalType":"bool"}],"stateMutability":"nonpayable"},{"type":"function","name":"transferOwnership","inputs":[{"name":"newOwner","type":"address","internalType":"address"}],"outputs":[],"stateMutability":"nonpayable"},{"type":"function","name":"treasury","inputs":[],"outputs":[{"name":"","type":"address","internalType":"address"}],"stateMutability":"view"},{"type":"function","name":"unpause","inputs":[],"outputs":[],"stateMutability":"nonpayable"},{"type":"event","name":"Approval","inputs":[{"name":"owner","type":"address","indexed":true,"internalType":"address"},{"name":"spender","type":"address","indexed":true,"internalType":"address"},{"name":"value","type":"uint256","indexed":false,"internalType":"uint256"}],"anonymous":false},{"type":"event","name":"MinterUpdated","inputs":[{"name":"minter","type":"address","indexed":true,"internalType":"address"},{"name":"allowed","type":"bool","indexed":false,"internalType":"bool"}],"anonymous":false},{"type":"event","name":"OwnershipTransferStarted","inputs":[{"name":"previousOwner","type":"address","indexed":true,"internalType":"address"},{"name":"newOwner","type":"address","indexed":true,"internalType":"address"}],"anonymous":false},{"type":"event","name":"OwnershipTransferred","inputs":[{"name":"previousOwner","type":"address","indexed":true,"internalType":"address"},{"name":"newOwner","type":"address","indexed":true,"internalType":"address"}],"anonymous":false},{"type":"event","name":"Paused","inputs":[{"name":"account","type":"address","indexed":false,"internalType":"address"}],"anonymous":false},{"type":"event","name":"Transfer","inputs":[{"name":"from","type":"address","indexed":true,"internalType":"address"},{"name":"to","type":"address","indexed":true,"internalType":"address"},{"name":"value","type":"uint256","indexed":false,"internalType":"uint256"}],"anonymous":false},{"type":"event","name":"TreasuryUpdated","inputs":[{"name":"oldTreasury","type":"address","indexed":true,"internalType":"address"},{"name":"newTreasury","type":"address","indexed":true,"internalType":"address"}],"anonymous":false},{"type":"event","name":"Unpaused","inputs":[{"name":"account","type":"address","indexed":false,"internalType":"address"}],"anonymous":false},{"type":"event","name":"WagesDistributed","inputs":[{"name":"recipient","type":"address","indexed":true,"internalType":"address"},{"name":"gross","type":"uint256","indexed":false,"internalType":"uint256"},{"name":"burned","type":"uint256","indexed":false,"internalType":"uint256"},{"name":"toTreasury","type":"uint256","indexed":false,"internalType":"uint256"}],"anonymous":false},{"type":"error","name":"ERC20InsufficientAllowance","inputs":[{"name":"spender","type":"address","internalType":"address"},{"name":"allowance","type":"uint256","internalType":"uint256"},{"name":"needed","type":"uint256","internalType":"uint256"}]},{"type":"error","name":"ERC20InsufficientBalance","inputs":[{"name":"sender","type":"address","internalType":"address"},{"name":"balance","type":"uint256","internalType":"uint256"},{"name":"needed","type":"uint256","internalType":"uint256"}]},{"type":"error","name":"ERC20InvalidApprover","inputs":[{"name":"approver","type":"address","internalType":"address"}]},{"type":"error","name":"ERC20InvalidReceiver","inputs":[{"name":"receiver","type":"address","internalType":"address"}]},{"type":"error","name":"ERC20InvalidSender","inputs":[{"name":"sender","type":"address","internalType":"address"}]},{"type":"error","name":"ERC20InvalidSpender","inputs":[{"name":"spender","type":"address","internalType":"address"}]},{"type":"error","name":"EnforcedPause","inputs":[]},{"type":"error","name":"ExpectedPause","inputs":[]},{"type":"error","name":"OnlyMinter","inputs":[]},{"type":"error","name":"OwnableInvalidOwner","inputs":[{"name":"owner","type":"address","internalType":"address"}]},{"type":"error","name":"OwnableUnauthorizedAccount","inputs":[{"name":"account","type":"address","internalType":"address"}]},{"type":"error","name":"ZeroAddress","inputs":[]}],"bytecode":{"object":"0x608060405234801561000f575f5ffd5b5060405161173d38038061173d83398101604081905261002e916102eb565b336040518060400160405280600581526020016453656e736960d81b8152506040518060400160405280600581526020016453454e534960d81b815250816003908161007a91906103b0565b50600461008782826103b0565b5050506001600160a01b0381166100b857604051631e4fbdf760e01b81525f60048201526024015b60405180910390fd5b6100c181610120565b506001600160a01b0381166100e95760405163d92e233d60e01b815260040160405180910390fd5b600780546001600160a01b0319166001600160a01b03831617905561011a336b033b2e3c9fd0803ce800000061013c565b5061048f565b600680546001600160a01b031916905561013981610174565b50565b6001600160a01b0382166101655760405163ec442f0560e01b81525f60048201526024016100af565b6101705f83836101c5565b5050565b600580546001600160a01b038381166001600160a01b0319831681179093556040519116919082907f8be0079c531659141344cd1fd0a4f28419497f9722a3daafe3b4186f6b6457e0905f90a35050565b6001600160a01b0383166101ef578060025f8282546101e4919061046a565b9091555061025f9050565b6001600160a01b0383165f90815260208190526040902054818110156102415760405163391434e360e21b81526001600160a01b038516600482015260248101829052604481018390526064016100af565b6001600160a01b0384165f9081526020819052604090209082900390555b6001600160a01b03821661027b57600280548290039055610299565b6001600160a01b0382165f9081526020819052604090208054820190555b816001600160a01b0316836001600160a01b03167fddf252ad1be2c89b69c2b068fc378daa952ba7f163c4a11628f55a4df523b3ef836040516102de91815260200190565b60405180910390a3505050565b5f602082840312156102fb575f5ffd5b81516001600160a01b0381168114610311575f5ffd5b9392505050565b634e487b7160e01b5f52604160045260245ffd5b600181811c9082168061034057607f821691505b60208210810361035e57634e487b7160e01b5f52602260045260245ffd5b50919050565b601f8211156103ab57805f5260205f20601f840160051c810160208510156103895750805b601f840160051c820191505b818110156103a8575f8155600101610395565b50505b505050565b81516001600160401b038111156103c9576103c9610318565b6103dd816103d7845461032c565b84610364565b6020601f82116001811461040f575f83156103f85750848201515b5f19600385901b1c1916600184901b1784556103a8565b5f84815260208120601f198516915b8281101561043e578785015182556020948501946001909201910161041e565b508482101561045b57868401515f19600387901b60f8161c191681555b50505050600190811b01905550565b8082018082111561048957634e487b7160e01b5f52601160045260245ffd5b92915050565b6112a18061049c5f395ff3fe608060405234801561000f575f5ffd5b50600436106101d1575f3560e01c8063715018a6116100fe57806395d89b411161009e578063e30c39781161006e578063e30c3978146103f0578063f0f4426014610401578063f2fde38b14610414578063f46eccc414610427575f5ffd5b806395d89b411461038a578063a9059cbb14610392578063cf456ae7146103a5578063dd62ed3e146103b8575f5ffd5b806381eb64cf116100d957806381eb64cf1461034e5780638456cb591461035e57806385bfd5d4146103665780638da5cb5b14610379575f5ffd5b8063715018a61461032b57806379ba50971461033357806379cc67901461033b575f5ffd5b80632ff2e9dc1161017457806342966c681161014457806342966c68146102b35780635c975abb146102c657806361d027b3146102d857806370a0823114610303575f5ffd5b80632ff2e9dc14610276578063313ce567146102895780633f4ba83a1461029857806340c10f19146102a0575f5ffd5b8063140b6216116101af578063140b62161461023557806318160ddd1461024a57806323b872dd146102525780632f7b769314610265575f5ffd5b806306fdde03146101d5578063095ea7b3146101f35780630ec2571814610216575b5f5ffd5b6101dd610449565b6040516101ea9190610fa8565b60405180910390f35b610206610201366004610ff8565b6104d9565b60405190151581526020016101ea565b61022769152d02c7e14af680000081565b6040519081526020016101ea565b610248610243366004610ff8565b6104f2565b005b600254610227565b610206610260366004611020565b610615565b61022769021e19e0c9bab240000081565b6102276b033b2e3c9fd0803ce800000081565b604051601281526020016101ea565b610248610638565b6102486102ae366004610ff8565b61064a565b6102486102c136600461105a565b6106a8565b600654600160a01b900460ff16610206565b6007546102eb906001600160a01b031681565b6040516001600160a01b0390911681526020016101ea565b610227610311366004611071565b6001600160a01b03165f9081526020819052604090205490565b6102486106b5565b6102486106c6565b610248610349366004610ff8565b61070c565b610227681b1ae4d6e2ef50000081565b610248610721565b6102486103743660046110d9565b610731565b6005546001600160a01b03166102eb565b6101dd61095c565b6102066103a0366004610ff8565b61096b565b6102486103b3366004611145565b610978565b6102276103c636600461117e565b6001600160a01b039182165f90815260016020908152604080832093909416825291909152205490565b6006546001600160a01b03166102eb565b61024861040f366004611071565b6109de565b610248610422366004611071565b610a68565b610206610435366004611071565b60086020525f908152604090205460ff1681565b606060038054610458906111af565b80601f0160208091040260200160405190810160405280929190818152602001828054610484906111af565b80156104cf5780601f106104a6576101008083540402835291602001916104cf565b820191905f5260205f20905b8154815290600101906020018083116104b257829003601f168201915b5050505050905090565b5f336104e6818585610ad9565b60019150505b92915050565b335f9081526008602052604090205460ff1615801561051c57506005546001600160a01b03163314155b1561053a57604051639cdc2ed560e01b815260040160405180910390fd5b610542610aeb565b5f606461055083605a6111fb565b61055a9190611212565b90505f606461056a8460056111fb565b6105749190611212565b90505f816105828486611231565b61058c9190611231565b90506105988584610b16565b6007546105ae906001600160a01b031682610b16565b6105b83083610b16565b6105c23083610b4a565b60408051858152602081018490529081018290526001600160a01b038616907fbdd6c82761fa5f0e04c08e0ce687893cf3933ddf7fa55d03878c5bdfa26c927e9060600160405180910390a25050505050565b5f33610622858285610b7e565b61062d858585610bfa565b506001949350505050565b610640610c57565b610648610c84565b565b335f9081526008602052604090205460ff1615801561067457506005546001600160a01b03163314155b1561069257604051639cdc2ed560e01b815260040160405180910390fd5b61069a610aeb565b6106a48282610b16565b5050565b6106b23382610b4a565b50565b6106bd610c57565b6106485f610cd9565b60065433906001600160a01b031681146107035760405163118cdaa760e01b81526001600160a01b03821660048201526024015b60405180910390fd5b6106b281610cd9565b610717823383610b7e565b6106a48282610b4a565b610729610c57565b610648610cf2565b335f9081526008602052604090205460ff1615801561075b57506005546001600160a01b03163314155b1561077957604051639cdc2ed560e01b815260040160405180910390fd5b610781610aeb565b8281146107c25760405162461bcd60e51b815260206004820152600f60248201526e098cadccee8d040dad2e6dac2e8c6d608b1b60448201526064016106fa565b5f5b83811015610955575f60648484848181106107e1576107e1611244565b90506020020135605a6107f491906111fb565b6107fe9190611212565b90505f606485858581811061081557610815611244565b90506020020135600561082891906111fb565b6108329190611212565b90505f818387878781811061084957610849611244565b9050602002013561085a9190611231565b6108649190611231565b905061089688888681811061087b5761087b611244565b90506020020160208101906108909190611071565b84610b16565b6007546108ac906001600160a01b031682610b16565b6108b63083610b16565b6108c03083610b4a565b8787858181106108d2576108d2611244565b90506020020160208101906108e79190611071565b6001600160a01b03167fbdd6c82761fa5f0e04c08e0ce687893cf3933ddf7fa55d03878c5bdfa26c927e87878781811061092357610923611244565b6040805160209283029490940135845290830187905282018590525060600160405180910390a25050506001016107c4565b5050505050565b606060048054610458906111af565b5f336104e6818585610bfa565b610980610c57565b6001600160a01b0382165f81815260086020908152604091829020805460ff191685151590811790915591519182527fb21afb9ce9be0a676f8f317ff0ca072fb89a4f8ce2d1b6fe80f8755c14f1cb19910160405180910390a25050565b6109e6610c57565b6001600160a01b038116610a0d5760405163d92e233d60e01b815260040160405180910390fd5b6007546040516001600160a01b038084169216907f4ab5be82436d353e61ca18726e984e561f5c1cc7c6d38b29d2553c790434705a905f90a3600780546001600160a01b0319166001600160a01b0392909216919091179055565b610a70610c57565b600680546001600160a01b0383166001600160a01b03199091168117909155610aa16005546001600160a01b031690565b6001600160a01b03167f38d16b8cac22d99fc7c124b9cd0de2d3fa1faef420bfe791d8c362d765e2270060405160405180910390a350565b610ae68383836001610d35565b505050565b600654600160a01b900460ff16156106485760405163d93c066560e01b815260040160405180910390fd5b6001600160a01b038216610b3f5760405163ec442f0560e01b81525f60048201526024016106fa565b6106a45f8383610e07565b6001600160a01b038216610b7357604051634b637e8f60e11b81525f60048201526024016106fa565b6106a4825f83610e07565b6001600160a01b038381165f908152600160209081526040808320938616835292905220545f19811015610bf45781811015610be657604051637dc7a0d960e11b81526001600160a01b038416600482015260248101829052604481018390526064016106fa565b610bf484848484035f610d35565b50505050565b6001600160a01b038316610c2357604051634b637e8f60e11b81525f60048201526024016106fa565b6001600160a01b038216610c4c5760405163ec442f0560e01b81525f60048201526024016106fa565b610ae6838383610e07565b6005546001600160a01b031633146106485760405163118cdaa760e01b81523360048201526024016106fa565b610c8c610f2d565b6006805460ff60a01b191690557f5db9ee0a495bf2e6ff9c91a7834c1ba4fdd244a5e8aa4e537bd38aeae4b073aa335b6040516001600160a01b03909116815260200160405180910390a1565b600680546001600160a01b03191690556106b281610f57565b610cfa610aeb565b6006805460ff60a01b1916600160a01b1790557f62e78cea01bee320cd4e420270b5ea74000d11b0c9f74754ebdbfc544b05a258610cbc3390565b6001600160a01b038416610d5e5760405163e602df0560e01b81525f60048201526024016106fa565b6001600160a01b038316610d8757604051634a1406b160e11b81525f60048201526024016106fa565b6001600160a01b038085165f9081526001602090815260408083209387168352929052208290558015610bf457826001600160a01b0316846001600160a01b03167f8c5be1e5ebec7d5bd14f71427d1e84f3dd0314c0f7b2291e5b200ac8c7c3b92584604051610df991815260200190565b60405180910390a350505050565b6001600160a01b038316610e31578060025f828254610e269190611258565b90915550610ea19050565b6001600160a01b0383165f9081526020819052604090205481811015610e835760405163391434e360e21b81526001600160a01b038516600482015260248101829052604481018390526064016106fa565b6001600160a01b0384165f9081526020819052604090209082900390555b6001600160a01b038216610ebd57600280548290039055610edb565b6001600160a01b0382165f9081526020819052604090208054820190555b816001600160a01b0316836001600160a01b03167fddf252ad1be2c89b69c2b068fc378daa952ba7f163c4a11628f55a4df523b3ef83604051610f2091815260200190565b60405180910390a3505050565b600654600160a01b900460ff1661064857604051638dfc202b60e01b815260040160405180910390fd5b600580546001600160a01b038381166001600160a01b0319831681179093556040519116919082907f8be0079c531659141344cd1fd0a4f28419497f9722a3daafe3b4186f6b6457e0905f90a35050565b602081525f82518060208401528060208501604085015e5f604082850101526040601f19601f83011684010191505092915050565b80356001600160a01b0381168114610ff3575f5ffd5b919050565b5f5f60408385031215611009575f5ffd5b61101283610fdd565b946020939093013593505050565b5f5f5f60608486031215611032575f5ffd5b61103b84610fdd565b925061104960208501610fdd565b929592945050506040919091013590565b5f6020828403121561106a575f5ffd5b5035919050565b5f60208284031215611081575f5ffd5b61108a82610fdd565b9392505050565b5f5f83601f8401126110a1575f5ffd5b50813567ffffffffffffffff8111156110b8575f5ffd5b6020830191508360208260051b85010111156110d2575f5ffd5b9250929050565b5f5f5f5f604085870312156110ec575f5ffd5b843567ffffffffffffffff811115611102575f5ffd5b61110e87828801611091565b909550935050602085013567ffffffffffffffff81111561112d575f5ffd5b61113987828801611091565b95989497509550505050565b5f5f60408385031215611156575f5ffd5b61115f83610fdd565b915060208301358015158114611173575f5ffd5b809150509250929050565b5f5f6040838503121561118f575f5ffd5b61119883610fdd565b91506111a660208401610fdd565b90509250929050565b600181811c908216806111c357607f821691505b6020821081036111e157634e487b7160e01b5f52602260045260245ffd5b50919050565b634e487b7160e01b5f52601160045260245ffd5b80820281158282048414176104ec576104ec6111e7565b5f8261122c57634e487b7160e01b5f52601260045260245ffd5b500490565b818103818111156104ec576104ec6111e7565b634e487b7160e01b5f52603260045260245ffd5b808201808211156104ec576104ec6111e756fea2646970667358221220ea4017689b33a36c0ef2aa7f1d5aab0fa15f4e9d63615425dd0097af8462f80a64736f6c634300081c0033","linkReferences":{}},"methodIdentifiers":{"CLEAN_SHEET_BONUS()":"81eb64cf","INITIAL_SUPPLY()":"2ff2e9dc","LEAGUE_WINNER_BONUS()":"0ec25718","TOP_SCORER_BONUS()":"2f7b7693","acceptOwnership()":"79ba5097","allowance(address,address)":"dd62ed3e","approve(address,uint256)":"095ea7b3","balanceOf(address)":"70a08231","batchDistributeWages(address[],uint256[])":"85bfd5d4","burn(uint256)":"42966c68","burnFrom(address,uint256)":"79cc6790","decimals()":"313ce567","distributeWages(address,uint256)":"140b6216","mint(address,uint256)":"40c10f19","minters(address)":"f46eccc4","name()":"06fdde03","owner()":"8da5cb5b","pause()":"8456cb59","paused()":"5c975abb","pendingOwner()":"e30c3978","renounceOwnership()":"715018a6","setMinter(address,bool)":"cf456ae7","setTreasury(address)":"f0f44260","symbol()":"95d89b41","totalSupply()":"18160ddd","transfer(address,uint256)":"a9059cbb","transferFrom(address,address,uint256)":"23b872dd","transferOwnership(address)":"f2fde38b","treasury()":"61d027b3","unpause()":"3f4ba83a"},"id":27}